:020000040800F2
:1000000000280020991B0008211B0008291B00085C
:10001000311B0008391B0008411B000800000000CC
:10002000000000000000000000000000491B000864
:10003000551B000800000000611B00086D1B000834
:10004000E11B0008E11B0008E11B0008E11B0008A0
:10005000E11B0008E11B0008E11B0008E11B000890
:10006000E11B0008E11B0008E11B0008E11B000880
:10007000E11B0008E11B0008E11B0008E11B000870
:10008000E11B0008E11B0008E11B0008E11B000860
:10009000E11B0008E11B0008E11B0008E11B000850
:1000A000E11B0008E11B0008E11B0008E11B000840
:1000B000791B0008E11B000800000000E11B00089C
:1000C000E11B00080000000000000000E11B000828
:1000D00000000000E11B0008E11B00080000000018
:1000E000E11B0008E11B0008E11B00080000000004
:1000F0000000000000000000000000000000000000
:0C01000000000000000000005FF808F1A3
:10010C0010B5054C237833B9044B13B10448AFF345
:10011C0000800123237010BD5C0000200000000053
:10012C001832000808B5034B1BB103490348AFF361
:10013C00008008BD0000000060000020183200089C
:10014C0080B400AF064B1B68012B04D1044B00227A
:10015C001A60012300E000231846BD4680BC70479E
:10016C007800002080B400AF064B1B68012B04D133
:10017C00044B00221A60012300E000231846BD4600
:10018C0080BC70477C00002080B400AF064B1B681D
:10019C00012B04D1044B00221A60012300E0002340
:1001AC001846BD4680BC70478000002080B400AF6C
:1001BC00034B01221A6000BFBD4680BC704700BFD4
:1001CC007800002080B500AF1F4B1B681F4A1360DE
:1001DC001F4B1B681C4A13604FF400511D4801F063
:1001EC00E7FF03461A461A4B1A60184B1A68164B4F
:1001FC001B689A4225D1144B1A68154B1B689A42FE
:10020C001FD1154B1A68124B1B689A420DD0104B1C
:10021C001B68114A13600E4B1B68002B11D1FFF7A2
:10022C00C5FF0E4BC8221A600BE00C4B1B68013B40
:10023C000A4A1360094B1B68002B02D1064B0122A2
:10024C001A6000BF80BD00BF040000200000002029
:10025C0008000020000C01400C00002010000020C1
:10026C0080B500AF1F4B1B681F4A13601F4B1B68E8
:10027C001C4A13604FF480411D4801F099FF03465E
:10028C001A461A4B1A60184B1A68164B1B689A427E
:10029C0026D1144B1A68154B1B689A4220D1154B6A
:1002AC001A68124B1B689A420ED0104B1B68114AED
:1002BC0013600E4B1B68002B12D10F4B01221A60DE
:1002CC000E4BC8221A600BE00C4B1B68013B0B4A0F
:1002DC0013600A4B1B68002B02D1064B01221A60DB
:1002EC0000BF80BD18000020140000201C0000205E
:1002FC00000C0140200000207C0000202400002085
:10030C0080B500AF1F4B1B681F4A13601F4B1B6847
:10031C001C4A13604FF400411D4801F049FF03468D
:10032C001A461A4B1A60184B1A68164B1B689A42DD
:10033C0026D1144B1A68154B1B689A4220D1154BC9
:10034C001A68124B1B689A420ED0104B1B68114A4C
:10035C0013600E4B1B68002B12D10F4B01221A603D
:10036C000E4BC8221A600BE00C4B1B68013B0B4A6E
:10037C0013600A4B1B68002B02D1064B01221A603A
:10038C0000BF80BD2C000020280000203000002081
:10039C00000C0140340000208000002038000020B8
:1003AC0080B500AF864B1B68013B042B00F26A81C1
:1003BC0001A252F823F000BFD9030008030400087F
:1003CC009904000837050008F505000800F008FB43
:1003DC0000F0E2FA7B4B00221A60794B02221A6081
:1003EC00794B64221A60794B1B68642202FB03F37D
:1003FC00774A13604FE100F011FB00F067FB724B82
:10040C001B68002B04DD704B1B68013B6E4A1360AC
:10041C006D4B1B68002B0CD16E4B1B68013B6D4A5E
:10042C0013606D4B1B68013B6B4A1360664B642277
:10043C001A60674B1B68002B04DD654B1B68013B86
:10044C00634A1360624B1B68002B0DDC5C4B032270
:10045C001A605E4B1B68604A1360604B1B68642219
:10046C0002FB03F35A4A1360FFF76AFE0346012BA3
:10047C0040F00A8100F0B4FA00F08EFA504B0C22D6
:10048C001A60534B4FF496721A60FDE000F0C6FAF6
:10049C0000F032FB4C4B1B68002B04DD4A4B1B68F5
:1004AC00013B494A1360484B1B68002B0CD1494B4C
:1004BC001B68013B474A1360494B1B68013B484A88
:1004CC001360414B64221A60414B1B68002B04DD06
:1004DC003F4B1B68013B3E4A13603D4B1B68002B96
:1004EC0011D1374B04221A603C4B1B683C4A1360F9
:1004FC003C4B1B68374A1360344B1B68642202FB6D
:10050C0003F3334A1360FFF71BFE0346012B40F045
:10051C00BD8000F065FA00F03FFA294B0C221A60FE
:10052C002B4B4FF47A721A60B0E000F08DFA00F0A9
:10053C00B7FA254B1B68002B04DD234B1B68013BD2
:10054C00214A1360204B1B68002B0CD1214B1B68DC
:10055C00013B204A1360204B1B68013B1E4A136071
:10056C00194B64221A601A4B1B68002B04DD184BC4
:10057C001B68013B164A1360154B1B68002B0DD1F1
:10058C000F4B05221A60114B1B68134A1360134B57
:10059C001B68642202FB03F30D4A1360FFF7D0FDC6
:1005AC000346012B74D100F01BFA00F0F5F9044B53
:1005BC000C221A60064B4FF47A721A6068E000BF86
:1005CC003C00002090000020880000204400002007
:1005DC008400002094000020980000204800002097
:1005EC009C0000204000002000F044FA00F058FA73
:1005FC002A4B1B68002B04DD284B1B68013B274A48
:10060C001360264B1B68002B0CD1254B1B68013B40
:10061C00234A1360234B1B68013B224A13601F4B78
:10062C0064221A60204B1B68002B04DD1E4B1B68D8
:10063C00013B1D4A13601C4B1B68002B11D11B4B3B
:10064C0002221A601A4B1B68154A1360194B1B685F
:10065C00144A1360184B1B68642202FB03F3124A02
:10066C001360FFF76DFD0346012B13D100F0B8F9B1
:10067C0000F092F90D4B02221A600B4B4FF47A7278
:10068C001A6007E000BF06E000BF04E000BF02E014
:10069C0000BF00E000BF00BF80BD00BF880000208D
:1006AC00940000209C000020840000203C000020CE
:1006BC0040000020480000204400002080B500AF1E
:1006CC008A4B1B680E2B00F0B1800E2B00F30581BA
:1006DC000C2B02D00D2B55D0FFE0854B1B68002B4B
:1006EC0004DD834B1B68013B814A1360804B1B6804
:1006FC00002B04D100F016FA7D4B32221A607D4B90
:10070C001B68002B04DD7B4B1B68013B794A136093
:10071C00784B1B68002B06D1744B02221A60754B68
:10072C004FF47A721A60FFF70BFD0346012B0AD1C6
:10073C00714B1B68714A13606C4B0D221A606D4B28
:10074C004FF47A721A60FFF70DFD0346012B0FD19F
:10075C006A4B1B680133694A1360684B1B68632B37
:10076C0002DD664B00221A60624B4FF47A721A60FB
:10077C00FFF70AFD0346012B40F0B1805B4B1522BD
:10078C001A60ACE05A4B1B68002B04DD584B1B68FD
:10079C00013B574A1360564B1B68002B04D100F0E9
:1007AC0005FA534B32221A60524B1B68002B04DDA6
:1007BC00504B1B68013B4F4A13604E4B1B68002B80
:1007CC0006D14A4B02221A604A4B4FF47A721A60D5
:1007DC00FFF7B6FC0346012B0AD1494B1B68494A6B
:1007EC001360424B0E221A60424B4FF47A721A601D
:1007FC00FFF7B8FC0346012B0FD1424B1B680133AA
:10080C00404A13603F4B1B68632B02DD3D4B0022BB
:10081C001A60384B4FF47A721A60FFF7B5FC034636
:10082C00012B5ED1314B16221A605AE0304B1B68FB
:10083C00002B04DD2E4B1B68013B2D4A13602C4B07
:10084C001B68002B04D100F08FF9294B32221A605F
:10085C00284B1B68002B04DD264B1B68013B254AEB
:10086C001360244B1B68002B0AD1274B1B68274AAB
:10087C0013601E4B02221A601E4B4FF47A721A60E0
:10088C00FFF75EFC0346012B09D11F4B1B681F4A67
:10089C001360164B01221A60164B64221A60FFF784
:1008AC0061FC0346012B0FD1184B1B680133174A0F
:1008BC001360164B1B68632B02DD144B00221A606D
:1008CC000C4B4FF47A721A60FFF75EFC0346012B57
:1008DC0009D1064B17221A6005E000BF04E000BFE7
:1008EC0002E000BF00E000BF00BF80BD3C00002064
:1008FC008C00002084000020400000209400002088
:10090C00480000209C00002044000020980000209B
:10091C0080B400AF194B1B68172B1ED0172B28DC8B
:10092C00152B02D0162B0CD023E0154B1B68154A47
:10093C001360144B1B68124A1360104B0C221A6084
:10094C0018E0114B1B68114A1360104B1B680E4AC0
:10095C0013600A4B0D221A600CE00D4B1B680D4AFC
:10096C0013600C4B1B680A4A1360044B0E221A606E
:10097C0000E000BF00BFBD4680BC70473C000020BB
:10098C0094000020400000209C0000204800002023
:10099C00980000204400002080B500AF0022012107
:1009AC000E4801F01CFC002202210C4801F017FC3F
:1009BC0000220421094801F012FC002208210748FA
:1009CC0001F00DFC00221021044801F008FC00226B
:1009DC002021024801F003FC00BF80BD000C014047
:1009EC0080B400AF074B1B68074A1360074B1B68AA
:1009FC00074A1360074B1B68074A136000BFBD46CC
:100A0C0080BC70474000002094000020440000206F
:100A1C0098000020480000209C00002080B500AF0A
:100A2C0001220121074801F0DAFB002202210548CE
:100A3C0001F0D5FB00220421024801F0D0FB00BFDD
:100A4C0080BD00BF000C014080B500AF0022012129
:100A5C00074801F0C4FB01220221054801F0BFFB4D
:100A6C0000220421024801F0BAFB00BF80BD00BF88
:100A7C00000C014080B500AF00220121074801F0B5
:100A8C00AEFB00220221054801F0A9FB0122042142
:100A9C00024801F0A4FB00BF80BD00BF000C014068
:100AAC0080B500AF01220821074801F098FB002215
:100ABC001021054801F093FB00222021024801F08F
:100ACC008EFB00BF80BD00BF000C014080B500AFA5
:100ADC0000220821074801F082FB01221021054861
:100AEC0001F07DFB00222021024801F078FB00BFC1
:100AFC0080BD00BF000C014080B500AF0022082172
:100B0C00074801F06CFB00221021054801F067FB3F
:100B1C0001222021024801F062FB00BF80BD00BF12
:100B2C00000C014080B500AF002202210D4801F0FD
:100B3C0056FB002204210B4801F051FB002210212E
:100B4C00084801F04CFB00222021064801F047FB2D
:100B5C000121044801F05BFB0821024801F057FB1E
:100B6C0000BF80BD000C014080B500AF0022012108
:100B7C000D4801F034FB02210B4801F048FB002228
:100B8C000421094801F02BFB00220821064801F042
:100B9C0026FB1021044801F03AFB002220210248D8
:100BAC0001F01DFB00BF80BD000C014080B500AF03
:100BBC00002201210D4801F012FB002202210B48FA
:100BCC0001F00DFB0421094801F021FB0022082152
:100BDC00064801F004FB00221021044801F0FFFA42
:100BEC002021024801F013FB00BF80BD000C014026
:100BFC0080B400AF1E4B1B68023B0C2B31D801A2FA
:100C0C0052F823F0450C00084B0C0008510C00085E
:100C1C00570C00086F0C00086F0C00086F0C0008D4
:100C2C006F0C00086F0C00086F0C00085D0C0008BE
:100C3C00690C0008630C00080E4B1B6813E00D4B8D
:100C4C001B6810E00C4B1B680DE00C4B1B680AE09A
:100C5C00084B1B6807E0084B1B6804E0074B1B683C
:100C6C0001E000BF00231846BD4680BC704700BFA2
:100C7C003C00002094000020980000209C000020E4
:100C8C0080B400AF1E4B1B68023B0C2B31D801A269
:100C9C0052F823F0D50C0008DB0C0008E10C00081E
:100CAC00E70C0008FF0C0008FF0C0008FF0C000804
:100CBC00FF0C0008FF0C0008FF0C0008ED0C0008EE
:100CCC00F90C0008F30C00080E4B1B6813E00E4BDC
:100CDC001B6810E00D4B1B680DE00C4B1B680AE009
:100CEC000A4B1B6807E0074B1B6804E0064B1B68AC
:100CFC0001E000BF00231846BD4680BC704700BF12
:100D0C003C000020980000209C0000209400002053
:100D1C0080B582B000AF78607B68092B00F2C88187
:100D2C0001A252F823F000BF5D0D0008B30D0008BE
:100D3C00090E00085F0E0008B50E00080B0F000826
:100D4C00610F0008B70F00080D10000863100008B1
:100D5C0000224FF40071D54801F041FA00224FF403
:100D6C008061D24801F03BFA00224FF40061CF4879
:100D7C0001F035FA00224FF48051CC4801F02FFAE3
:100D8C0000224FF40051C94801F029FA00224FF417
:100D9C008041C64801F023FA01224FF40041C348B8
:100DAC0001F01DFA85E101224FF40071BF4801F0FA
:100DBC0016FA00224FF48061BC4801F010FA0022B0
:100DCC004FF40061B94801F00AFA01224FF4805146
:100DDC00B64801F004FA01224FF40051B34801F077
:100DEC00FEF901224FF48041B04801F0F8F90122DC
:100DFC004FF40041AD4801F0F2F95AE100224FF4F2
:100E0C000071AA4801F0EBF900224FF48061A74869
:100E1C0001F0E5F901224FF40061A44801F0DFF97B
:100E2C0000224FF48051A14801F0D9F900224FF46F
:100E3C0000519E4801F0D3F901224FF480419B48A8
:100E4C0001F0CDF900224FF40041984801F0C7F9A8
:100E5C002FE100224FF40071944801F0C0F90022F8
:100E6C004FF48061914801F0BAF900224FF400610F
:100E7C008E4801F0B4F900224FF480518B4801F0F8
:100E8C00AEF901224FF40051884801F0A8F9012273
:100E9C004FF48041854801F0A2F900224FF4004143
:100EAC00824801F09CF904E101224FF400717F4863
:100EBC0001F095F900224FF480617C4801F08FF924
:100ECC0000224FF40061794801F089F901224FF4B6
:100EDC008051764801F083F901224FF40051734898
:100EEC0001F07DF900224FF48041704801F077F950
:100EFC0000224FF400416D4801F071F9D9E0002255
:100F0C004FF40071694801F06AF901224FF48061D5
:100F1C00664801F064F900224FF40061634801F067
:100F2C005EF900224FF48051604801F058F901221B
:100F3C004FF400515D4801F052F900224FF480410A
:100F4C005A4801F04CF900224FF40041574801F087
:100F5C0046F9AEE000224FF40071544801F03FF91D
:100F6C0001224FF48061514801F039F900224FF40D
:100F7C0000614E4801F033F900224FF480514B4888
:100F8C0001F02DF900224FF40051484801F027F9E7
:100F9C0000224FF48041454801F021F900224FF422
:100FAC000041424801F01BF983E000224FF400712C
:100FBC003E4801F014F900224FF480613B4801F0E7
:100FCC000EF900224FF40061384801F008F90122B3
:100FDC004FF48051354801F002F901224FF40051D1
:100FEC00324801F0FCF801224FF480412F4801F007
:100FFC00F6F801224FF400412C4801F0F0F858E0CB
:10100C0000224FF40071294801F0E9F800224FF456
:10101C008061264801F0E3F800224FF40061234878
:10102C0001F0DDF800224FF48051204801F0D7F890
:10103C0000224FF400511D4801F0D1F800224FF46A
:10104C0080411A4801F0CBF800224FF400411748B8
:10105C0001F0C5F82DE000224FF40071134801F0A7
:10106C00BEF800224FF48061104801F0B8F800225D
:10107C004FF400610D4801F0B2F800224FF480519A
:10108C000A4801F0ACF801224FF40051074801F076
:10109C00A6F800224FF48041044801F0A0F8002289
:1010AC004FF40041014801F09AF802E000080140B9
:1010BC0000BF00BF0837BD4680BD00BF80B400AF85
:1010CC00164B1B68032B0BD0144B1B68022B07D041
:1010DC00124B1B68042B03D0104B1B68052B03D140
:1010EC000F4B01221A6012E00C4B1B680C2B03D126
:1010FC000B4B02221A600AE0084B1B680D2B03D124
:10110C00074B03221A6002E0054B04221A60044BC1
:10111C001B681846BD4680BC704700BF3C000020D1
:10112C004C00002080B582B000AF7860FFF7C6FF9E
:10113C007B68013B032B00F2AF8001A252F823F035
:10114C005D110008AF1100080112000853120008CD
:10115C0001224021534801F042F8002280215148DD
:10116C0001F03DF800224FF480714E4801F037F841
:10117C0001224FF400714B4801F031F801224FF479
:10118C008061484801F02BF801224FF4006145487A
:10119C0001F025F801224FF48051424801F01FF86C
:1011AC007BE0002240213F4801F019F80022802109
:1011BC003C4801F014F801224FF48071394801F0D9
:1011CC000EF800224FF40071364801F008F80022A6
:1011DC004FF48061334801F002F801224FF40061B2
:1011EC00304800F0FCFF00224FF480512D4800F0F5
:1011FC00F6FF52E0002240212A4800F0F0FF0022C6
:10120C008021284800F0EBFF00224FF48071254824
:10121C0000F0E5FF00224FF40071224800F0DFFFE0
:10122C0001224FF480611F4800F0D9FF01224FF4D6
:10123C0000611C4800F0D3FF00224FF48051194884
:10124C0000F0CDFF29E001224021164800F0C7FF35
:10125C0000228021134800F0C2FF00224FF480715D
:10126C00104800F0BCFF01224FF400710D4800F053
:10127C00B6FF01224FF480610A4800F0B0FF002253
:10128C004FF40061074800F0AAFF00224FF4805190
:10129C00044800F0A4FF00E000BF00BF0837BD46C3
:1012AC0080BD00BF000C014080B582B000AF7860FB
:1012BC007B685A4203F0030302F0030258BF534207
:1012CC007B607B68032B00F2998001A252F823F01B
:1012DC00ED1200082F1300087B130008BD13000843
:1012EC0000220221474800F07AFF012204214548E0
:1012FC0000F075FF01220821424800F070FF012226
:10130C001021404800F06BFFFFF772FC03463E4A89
:10131C0082FB03129210DB17D31A1846FFF7F8FC66
:10132C006CE001220221374800F059FF0022042111
:10133C00344800F054FF01220821324800F04FFFDE
:10134C00012210212F4800F04AFFFFF751FC014603
:10135C002D4B83FB01239A10CB17D21A13469B00FB
:10136C0013445B00CA1A1046FFF7D2FC46E0012278
:10137C000221244800F033FF01220421214800F00F
:10138C002EFF002208211F4800F029FF0122102106
:10139C001C4800F024FFFFF773FC03461A4A82FB3B
:1013AC0003129210DB17D31A1846FFF7B1FC25E095
:1013BC0001220221134800F012FF012204211148DE
:1013CC0000F00DFF012208210E4800F008FF00225A
:1013DC0010210C4800F003FFFFF752FC01460A4BAA
:1013EC0083FB01239A10CB17D21A13469B0013448C
:1013FC005B00CA1A1046FFF78BFC00BF00BF083712
:10140C00BD4680BD000801406766666680B500AFCA
:10141C00104B1B68002B04DD0E4B1B68013B0D4A67
:10142C0013600C4B1B68002B11DC0A4B19221A6041
:10143C00094B1B68032B02DD074B00221A60064B7D
:10144C001B685A1C04490A601846FFF72DFF00BFA1
:10145C0080BD00BFA00000209000002080B500AF30
:10146C00034B1B681846FFF75DFE00BF80BD00BF35
:10147C004C00002080B500AF00F0AEFB00F054F83B
:10148C0000F0DAF800F08CF81C4801F007FB0A2297
:10149C0000211B4800F0D0F90A220021194800F065
:1014AC00CBF90A220021184800F0C6F90A220021C3
:1014BC00164800F0C1F90A220021154800F0BCF9C9
:1014CC000A220021134800F0B7F90A220021124821
:1014DC0000F0B2F90A220021104800F0ADF900F03A
:1014EC004BFA0F4B1B68012BF9D120210D4800F052
:1014FC008EFE4FF47A7000F09BFAF0E7A400002007
:10150C00D10100086D0200080D03000869140008E1
:10151C0019140008AD030008C90600081D090008CD
:10152C00B80100200008014080B590B000AF07F171
:10153C00180328220021184601F03CFE3B1D002216
:10154C001A605A609A60DA601A610223BB61012347
:10155C00BB621023FB6200237B6307F11803184660
:10156C0000F06EFE0346002B01D000F0EDF80F23C7
:10157C007B600023BB600023FB6000233B610023E6
:10158C007B613B1D0021184601F0DCF80346002B63
:10159C0001D000F0D9F800BF4037BD4680BD000037
:1015AC0080B586B000AF07F1080300221A605A60BC
:1015BC009A60DA603B4600221A605A601D4B4FF06D
:1015CC0080421A601B4B41F63F725A60194B002245
:1015DC009A60184B0922DA60164B00221A61154BDF
:1015EC0000229A61134801F009FA0346002B01D03E
:1015FC0000F0AAF84FF48053BB6007F108031946BA
:10160C000C4801F087FB0346002B01D000F09CF83E
:10161C0000233B6000237B603B461946054801F0E4
:10162C005FFD0346002B01D000F08EF800BF183789
:10163C00BD4680BDA400002080B588B000AF07F186
:10164C00100300221A605A609A60DA60354B9B696D
:10165C00344A43F010039361324B9B6903F010033F
:10166C00FB60FB682F4B9B692E4A43F0040393618C
:10167C002C4B9B6903F00403BB60BB68294B9B6933
:10168C00284A43F008039361264B9B6903F0080337
:10169C007B607B6800224FF6FE71234800F09FFDB3
:1016AC00002241F6FF71214800F099FD4FF40053E0
:1016BC003B6100237B610123BB6107F110031946D9
:1016CC001B4800F0F9FB4FF6FE733B6101237B6175
:1016DC000023BB610223FB6107F11003194612487A
:1016EC0000F0EAFB41F6FF733B6101237B610023B1
:1016FC00BB610223FB6107F1100319460B4800F094
:10170C00DBFB4FF460433B6100237B610123BB6136
:10171C0007F110031946054800F0CEFB00BF203737
:10172C00BD4680BD0010024000080140000C014085
:10173C000010014080B582B000AF786000F00AF86C
:10174C0000BF0837BD4680BD80B400AF72B600BF85
:10175C0000BFFDE780B483B000AF0023FB715FE0F6
:10176C00FA79344913469B0013449B000B441B68C5
:10177C00002B52D0FA792F4913469B0013449B003F
:10178C000B4404331B68FA79591E2A4813469B00F4
:10179C0013449B00034404331960FA79254913461A
:1017AC009B0013449B000B4404331B68002B34DC5C
:1017BC00FA79204913469B0013449B000B440C33CD
:1017CC0093F90030DBB20133DBB2FA7958B2194924
:1017DC0013469B0013449B000B440C3302461A70B7
:1017EC00FA79144913469B0013449B000B440833AD
:1017FC001B68002B11D0F979FA790E480B469B0027
:10180C000B449B000344083319680A4813469B0099
:10181C0013449B00034404331960FB790133FB71BF
:10182C00FB79092B9CD900BF00BF0C37BD4680BC8F
:10183C00704700BFEC00002080B487B000AFF860A8
:10184C00B9607A600023FB7502E0FB7D0133FB7508
:10185C00FA7D244913469B0013449B000B441B68E0
:10186C00002B02D0FB7D092BEFD9FB7D0A2B01D17C
:10187C000A2331E0FA7D1B4913469B0013449B005D
:10188C000B44FA681A60BB68174AA2FB0323DB08F7
:10189C00FA7D1846134913469B0013449B000B44D6
:1018AC00043318607B68104AA2FB0323DB08FA7D23
:1018BC0018460C4913469B0013449B000B440833F9
:1018CC001860FA7D074913469B0013449B000B4498
:1018DC000C3300221A70FB7D18461C37BD4680BCA9
:1018EC00704700BFEC000020CDCCCCCC80B485B0D0
:1018FC0000AF0346FB710023FB73FA791D491346B5
:10190C009B0013449B000B441B68002B02D101234A
:10191C00FB7301E00023FB73FA79164913469B0015
:10192C0013449B000B4400221A60FA7911491346A8
:10193C009B0013449B000B44043300221A60FA7979
:10194C000C4913469B0013449B000B4408330022A4
:10195C001A60FA79074913469B0013449B000B4409
:10196C000C3300221A70FB7B18461437BD4680BC22
:10197C00704700BFEC00002080B582B000AF0023A0
:10198C00FB714AE0FA79294913469B0013449B00EA
:10199C000B441B68002B3CD0FA79244913469B005E
:1019AC0013449B000B440C3393F90030002B31DDB6
:1019BC00FA791E4913469B0013449B000B441B6889
:1019CC009847FA79194913469B0013449B000B4422
:1019DC000C3393F90030DBB2013BDBB2FA7958B22D
:1019EC00124913469B0013449B000B440C330246D4
:1019FC001A70FA790D4913469B0013449B000B4453
:101A0C0008331B68002B05D1FB791846FFF76EFFD6
:101A1C0000E000BFFB790133FB71FB79092BB1D9D5
:101A2C0000BF00BF0837BD4680BD00BFEC000020E2
:101A3C0080B483B000AF78607B68084A82FB0312E5
:101A4C009210DB17D31A064A1360064B00221A6059
:101A5C0000BF0C37BD4680BC704700BF676666662A
:101A6C00B4010020B801002080B485B000AF154B44
:101A7C009B69144A43F001039361124B9B6903F079
:101A8C000103BB60BB680F4BDB690E4A43F080530C
:101A9C00D3610C4BDB6903F080537B607B680A4B92
:101AAC005B68FB60FB6823F0E063FB60FB6843F062
:101ABC008063FB60044AFB68536000BF1437BD466B
:101ACC0080BC7047001002400000014080B584B01B
:101ADC0000AF78607B681B68B3F1804F13D10C4B5F
:101AEC00DB690B4A43F00103D361094BDB6903F05B
:101AFC000103FB60FB68002200211C2000F0A5F90B
:101B0C001C2000F0BEF900BF1037BD4680BD00BFE1
:101B1C000010024080B400AF00BFFDE780B400AFFE
:101B2C0000BFFDE780B400AF00BFFDE780B400AF9D
:101B3C0000BFFDE780B400AF00BFFDE780B400AF8D
:101B4C0000BFBD4680BC704780B400AF00BFBD462F
:101B5C0080BC704780B400AF00BFBD4680BC7047EE
:101B6C0080B500AF00F07EF800BF80BD80B500AF3F
:101B7C00024800F0DFFF00BF80BD00BFA4000020C2
:101B8C0080B400AF00BFBD4680BC7047FFF7F8FFC4
:101B9C000B480C490C4A002302E0D458C4500433BF
:101BAC00C4188C42F9D3094A094C002301E0136094
:101BBC000432A242FBD301F005FBFFF75BFC70473C
:101BCC00000000205C0000205C3200085C0000205B
:101BDC00C0010020FEE7000080B500AF084B1B6879
:101BEC00074A43F010031360032000F023F90F2081
:101BFC0000F008F8FFF738FF0023184680BD00BF3F
:101C0C000020024080B582B000AF7860124B1A6899
:101C1C00124B1B7819464FF47A73B3FBF1F3B2FBFA
:101C2C00F3F3184600F03BF90346002B01D00123D7
:101C3C000EE07B680F2B0AD8002279684FF0FF303A
:101C4C0000F003F9064A7B681360002300E00123CF
:101C5C0018460837BD4680BD5000002058000020B3
:101C6C005400002080B400AF054B1B781A46054B7E
:101C7C001B681344034A136000BFBD4680BC704709
:101C8C0058000020BC01002080B400AF024B1B6840
:101C9C001846BD4680BC7047BC01002080B485B09E
:101CAC0000AF78607B6803F00703FB600C4BDB68CC
:101CBC00BB60BA684FF6FF031340BB60FB681A02A7
:101CCC00BB68134343F0BF6343F40033BB60044A67
:101CDC00BB68D36000BF1437BD4680BC704700BFE3
:101CEC0000ED00E080B400AF044BDB681B0A03F08E
:101CFC0007031846BD4680BC704700BF00ED00E0EE
:101D0C0080B483B000AF0346FB7197F90730002B0A
:101D1C000BDBFB7903F01F02064997F907305B09CF
:101D2C00012000FA02F241F8232000BF0C37BD4617
:101D3C0080BC704700E100E080B483B000AF034684
:101D4C003960FB7197F90730002B0ADB3B68DAB27C
:101D5C000C4997F907301201D2B20B4483F80023D7
:101D6C000AE03B68DAB20849FB7903F00F03043B45
:101D7C001201D2B20B441A7600BF0C37BD4680BCA0
:101D8C00704700BF00E100E000ED00E080B489B0D6
:101D9C0000AFF860B9607A60FB6803F00703FB6181
:101DAC00FB69C3F10703042B28BF0423BB61FB6948
:101DBC000433062B02D9FB69033B00E000237B6153
:101DCC004FF0FF32BB6902FA03F3DA43BB681A40E7
:101DDC007B699A404FF0FF317B6901FA03F3D943D9
:101DEC007B680B40134318462437BD4680BC7047B4
:101DFC0080B582B000AF78607B68013BB3F1807F27
:101E0C0001D301230FE00A4A7B68013B53600F2189
:101E1C004FF0FF30FFF790FF054B00229A60044B08
:101E2C0007221A60002318460837BD4680BD00BF44
:101E3C0010E000E080B582B000AF78607868FFF702
:101E4C002DFF00BF0837BD4680BD80B586B000AF02
:101E5C000346B9607A60FB7300237B61FFF742FF96
:101E6C0078617A68B9687869FFF790FF024697F94C
:101E7C000F3011461846FFF75FFF00BF1837BD46FD
:101E8C0080BD80B582B000AF0346FB7197F9073077
:101E9C001846FFF735FF00BF0837BD4680BD80B53B
:101EAC0082B000AF78607868FFF7A2FF034618464F
:101EBC000837BD4680BD000080B48BB000AF7860A1
:101ECC00396000237B6200233B6261E101227B6A63
:101EDC0002FA03F3FB613B681B68FA691340BB61B0
:101EEC00BA69FB699A4240F050813B685B68974A3B
:101EFC0093425ED0954A934275D8954A934258D0F6
:101F0C00934A93426FD8934A934252D0914A934248
:101F1C0069D8914A93424CD08F4A934263D88F4AE6
:101F2C00934246D08D4A93425DD8122B2AD8122B5D
:101F3C0059D801A252F823F0BF1F0008991F0008BE
:101F4C00AB1F0008ED1F0008F31F0008F31F00086B
:101F5C00F31F0008F31F0008F31F0008F31F00080D
:101F6C00F31F0008F31F0008F31F0008F31F0008FD
:101F7C00F31F0008F31F0008F31F0008A11F00083F
:101F8C00B51F0008764A934213D02CE03B68DB68FF
:101F9C003B6229E03B68DB6804333B6224E03B682E
:101FAC00DB6808333B621FE03B68DB680C333B6249
:101FBC001AE03B689B68002B02D104233B6213E0C0
:101FCC003B689B68012B05D108233B627B68FA694F
:101FDC001A6109E008233B627B68FA695A6103E0E5
:101FEC0000233B6200E000BFBB69FF2B01D87B687C
:101FFC0001E07B6804337B61BB69FF2B02D87B6AF1
:10200C009B0002E07B6A083B9B003B617B691A6882
:10201C000F213B6901FA03F3DB431A40396A3B6930
:10202C0001FA03F31A437B691A603B685B6803F09F
:10203C008053002B00F0A9804A4B9B69494A43F01E
:10204C0001039361474B9B6903F00103BB60BB68C1
:10205C00454A7B6A9B08023352F82330FB607B6A4B
:10206C0003F003039B000F2202FA03F3DB43FA682D
:10207C001340FB607B683D4A93420DD07B683C4A21
:10208C00934207D07B683B4A934201D1022304E080
:10209C00032302E0012300E000237A6A02F003022A
:1020AC0092009340FA681343FB602F497B6A9B08AC
:1020BC000233FA6841F823203B685B6803F4801311
:1020CC00002B06D02C4B9A682B49BB6913438B60B1
:1020DC0006E0294B9A68BB69DB43274913408B60A8
:1020EC003B685B6803F40013002B06D0224BDA68C4
:1020FC002149BB691343CB6006E01F4BDA68BB690F
:10210C00DB431D491340CB603B685B6803F4003331
:10211C00002B06D0184B5A681749BB6913434B6008
:10212C0006E0154B5A68BB69DB43134913404B60FF
:10213C003B685B6803F48033002B1FD00E4B1A688E
:10214C000D49BB6913430B601FE000BF0000321048
:10215C0000003110000022100000211000001210AD
:10216C000000111000100240000001400008014066
:10217C00000C014000100140000401400B4B1A6898
:10218C00BB69DB43094913400B607B6A01337B62FB
:10219C003B681A687B6A22FA03F3002B7FF496AE35
:1021AC0000BF00BF2C37BD4680BC70470004014007
:1021BC0080B485B000AF78600B467B807B689A68F2
:1021CC007B881340002B02D00123FB7301E000231A
:1021DC00FB73FB7B18461437BD4680BC704780B43C
:1021EC0083B000AF78600B467B8013467B707B78A6
:1021FC00002B03D07A887B681A6103E07B881A0471
:10220C007B681A6100BF0C37BD4680BC704780B438
:10221C0085B000AF78600B467B807B68DB68FB6029
:10222C007A88FB6813401A04FB68D9437B880B40FF
:10223C001A437B681A6100BF1437BD4680BC7047D7
:10224C0080B586B000AF78607B68002B01D101238C
:10225C0072E27B681B6803F00103002B00F087809F
:10226C00924B5B6803F00C03042B0CD08F4B5B6818
:10227C0003F00C03082B12D18C4B5B6803F48033F6
:10228C00B3F5803F0BD1894B1B6803F40033002B53
:10229C006CD07B685B68002B68D101234CE27B68B7
:1022AC005B68B3F5803F06D1804B1B687F4A43F4D3
:1022BC00803313602EE07B685B68002B0CD17B4B6A
:1022CC001B687A4A23F480331360784B1B68774A77
:1022DC0023F4802313601DE07B685B68B3F5A02FAB
:1022EC000CD1724B1B68714A43F4802313606F4B03
:1022FC001B686E4A43F4803313600BE06B4B1B6816
:10230C006A4A23F480331360684B1B68674A23F4D2
:10231C00802313607B685B68002B13D0FFF7B4FC41
:10232C00386108E0FFF7B0FC02463B69D31A642B16
:10233C0001D9032300E25D4B1B6803F40033002B2F
:10234C00F0D014E0FFF7A0FC386108E0FFF79CFC2C
:10235C0002463B69D31A642B01D90323ECE1534B9E
:10236C001B6803F40033002BF0D100E000BF7B6846
:10237C001B6803F00203002B63D04C4B5B6803F02B
:10238C000C03002B0BD0494B5B6803F00C03082BA0
:10239C001CD1464B5B6803F48033002B16D1434BA6
:1023AC001B6803F00203002B05D07B681B69012B13
:1023BC0001D00123C0E13D4B1B6823F0F8027B6880
:1023CC005B69DB00394913430B603AE07B681B699E
:1023DC00002B20D0364B01221A60FFF755FC3861D8
:1023EC0008E0FFF751FC02463B69D31A022B01D9D6
:1023FC000323A1E12D4B1B6803F00203002BF0D04B
:10240C002A4B1B6823F0F8027B685B69DB002749C9
:10241C0013430B6015E0264B00221A60FFF734FCC7
:10242C00386108E0FFF730FC02463B69D31A022BF7
:10243C0001D9032380E11D4B1B6803F00203002B21
:10244C00F0D17B681B6803F00803002B3AD07B6843
:10245C009B69002B19D0174B01221A60FFF714FC53
:10246C00386108E0FFF710FC02463B69D31A022BD7
:10247C0001D9032360E10D4B5B6A03F00203002BCF
:10248C00F0D0012000F09CFA1CE00A4B00221A60EC
:10249C00FFF7FAFB38610FE0FFF7F6FB02463B69EA
:1024AC00D31A022B08D9032346E100BF00100240C7
:1024BC000000424280044242924B5B6A03F00203EA
:1024CC00002BE9D17B681B6803F00403002B00F0A0
:1024DC00A6800023FB758B4BDB6903F08053002B2C
:1024EC000DD1884BDB69874A43F08053D361854B10
:1024FC00DB6903F08053BB60BB680123FB75824B27
:10250C001B6803F48073002B18D17F4B1B687E4A29
:10251C0043F480731360FFF7B7FB386108E0FFF7F3
:10252C00B3FB02463B69D31A642B01D9032303E1A5
:10253C00754B1B6803F48073002BF0D07B68DB6851
:10254C00012B06D16F4B1B6A6E4A43F001031362D9
:10255C002DE07B68DB68002B0CD16A4B1B6A694A47
:10256C0023F001031362674B1B6A664A23F00403D2
:10257C0013621CE07B68DB68052B0CD1614B1B6A7A
:10258C00604A43F0040313625E4B1B6A5D4A43F0DE
:10259C00010313620BE05B4B1B6A5A4A23F00103E5
:1025AC001362584B1B6A574A23F0040313627B686F
:1025BC00DB68002B15D0FFF767FB38610AE0FFF7EB
:1025CC0063FB02463B69D31A41F28832934201D92C
:1025DC000323B1E04B4B1B6A03F00203002BEED03C
:1025EC0014E0FFF751FB38610AE0FFF74DFB0246A0
:1025FC003B69D31A41F28832934201D903239BE001
:10260C00404B1B6A03F00203002BEED1FB7D012B28
:10261C0005D13C4BDB693B4A23F08053D3617B688B
:10262C00DB69002B00F08780364B5B6803F00C03F2
:10263C00082B61D07B68DB69022B46D1334B00221F
:10264C001A60FFF721FB386108E0FFF71DFB02461B
:10265C003B69D31A022B01D903236DE0294B1B686C
:10266C0003F00073002BF0D17B681B6AB3F5803F3D
:10267C0008D1244B5B6823F400327B689B682149AA
:10268C0013434B601F4B5B6823F474127B68196A0D
:10269C007B685B6A0B431B4913434B601B4B01224A
:1026AC001A60FFF7F1FA386108E0FFF7EDFA02461D
:1026BC003B69D31A022B01D903233DE0114B1B6854
:1026CC0003F00073002BF0D035E0104B00221A60A1
:1026DC00FFF7DAFA386108E0FFF7D6FA02463B69F1
:1026EC00D31A022B01D9032326E0064B1B6803F0F7
:1026FC000073002BF0D11EE07B68DB69012B07D146
:10270C00012319E0001002400070004060004242BA
:10271C000B4B5B68FB60FB6803F480327B681B6AC5
:10272C009A4206D1FB6803F470127B685B6A9A428A
:10273C0001D0012300E0002318461837BD4680BDA8
:10274C000010024080B584B000AF786039607B68BF
:10275C00002B01D10123D0E06A4B1B6803F0070367
:10276C003A689A4210D9674B1B6823F007026549F7
:10277C003B6813430B60634B1B6803F007033A6819
:10278C009A4201D00123B8E07B681B6803F0020376
:10279C00002B20D07B681B6803F00403002B05D0B2
:1027AC00594B5B68584A43F4E06353607B681B6881
:1027BC0003F00803002B05D0534B5B68524A43F4DB
:1027CC0060535360504B5B6823F0F0027B689B684E
:1027DC004D4913434B607B681B6803F00103002BCE
:1027EC0040D07B685B68012B07D1474B1B6803F417
:1027FC000033002B15D101237FE07B685B68022B33
:10280C0007D1414B1B6803F00073002B09D1012346
:10281C0073E03D4B1B6803F00203002B01D1012335
:10282C006BE0394B5B6823F003027B685B683649CD
:10283C0013434B60FFF728FAF8600AE0FFF724FA1D
:10284C000246FB68D31A41F28832934201D9032322
:10285C0053E02D4B5B6803F00C027B685B689B00BC
:10286C009A42EBD1274B1B6803F007033A689A4254
:10287C0010D2244B1B6823F0070222493B681343F8
:10288C000B60204B1B6803F007033A689A4201D097
:10289C00012332E07B681B6803F00403002B08D093
:1028AC00194B5B6823F4E0627B68DB6816491343C1
:1028BC004B607B681B6803F00803002B09D0124B9C
:1028CC005B6823F460527B681B69DB000E49134381
:1028DC004B6000F021F802460B4B5B681B0903F0C0
:1028EC000F030A49CB5C22FA03F3094A1360094B24
:1028FC001B681846FFF786F9002318461037BD46AB
:10290C0080BD00BF002002400010024030320008A1
:10291C00500000205400002080B487B000AF00238A
:10292C00FB600023BB6000237B6100237B600023E2
:10293C003B611E4B5B68FB60FB6803F00C03042BD4
:10294C0002D0082B03D027E0194B3B6127E0FB6832
:10295C009B0C03F00F03174AD35C7B60FB6803F4FA
:10296C008033002B10D0114B5B685B0C03F0010320
:10297C00114AD35CBB607B680D4A03FB02F2BB6857
:10298C00B2FBF3F37B6104E07B680C4A02FB03F3BC
:10299C007B617B693B6102E0054B3B6100BF3B699E
:1029AC0018461C37BD4680BC704700BF0010024063
:1029BC0000127A00403200085032000800093D0035
:1029CC0080B485B000AF78600A4B1B680A4AA2FB42
:1029DC0003235B0A7A6802FB03F3FB6000BFFB680E
:1029EC005A1EFA60002BF9D100BF00BF1437BD4648
:1029FC0080BC704750000020D34D621080B582B06F
:102A0C0000AF78607B68002B01D1012341E07B682B
:102A1C0093F83D30DBB2002B06D17B68002283F8A3
:102A2C003C207868FFF752F87B68022283F83D203F
:102A3C007B681A687B6804331946104600F056FA16
:102A4C007B68012283F846207B68012283F83E20B4
:102A5C007B68012283F83F207B68012283F84020A9
:102A6C007B68012283F841207B68012283F8422095
:102A7C007B68012283F843207B68012283F8442081
:102A8C007B68012283F845207B68012283F83D2076
:102A9C00002318460837BD4680BD000080B485B0C1
:102AAC0000AF78607B6893F83D30DBB2012B01D02E
:102ABC00012335E07B68022283F83D207B681B688C
:102ACC00DA687B681B6842F00102DA607B681B687D
:102ADC00164A934209D07B681B68B3F1804F04D02F
:102AEC007B681B68124A934211D17B681B689B68F8
:102AFC0003F00703FB60FB68062B10D07B681B6898
:102B0C001A687B681B6842F001021A6007E07B6858
:102B1C001B681A687B681B6842F001021A6000236C
:102B2C0018461437BD4680BC704700BF002C0140CE
:102B3C000004004080B584B000AF78607B681B68EF
:102B4C00DB68FB607B681B681B69BB60BB6803F0C0
:102B5C000203002B20D0FB6803F00203002B1BD0D8
:102B6C007B681B686FF002021A617B6801221A777E
:102B7C007B681B689B6903F00303002B03D0786808
:102B8C0000F098F905E0786800F08BF9786800F0AF
:102B9C009AF97B6800221A77BB6803F00403002BB8
:102BAC0020D0FB6803F00403002B1BD07B681B6850
:102BBC006FF004021A617B6802221A777B681B682B
:102BCC009B6903F44073002B03D0786800F072F912
:102BDC0005E0786800F065F9786800F074F97B68B6
:102BEC0000221A77BB6803F00803002B20D0FB6887
:102BFC0003F00803002B1BD07B681B686FF00802E6
:102C0C001A617B6804221A777B681B68DB6903F006
:102C1C000303002B03D0786800F04CF905E07868CA
:102C2C0000F03FF9786800F04EF97B6800221A77C3
:102C3C00BB6803F01003002B20D0FB6803F01003DB
:102C4C00002B1BD07B681B686FF010021A617B682D
:102C5C0008221A777B681B68DB6903F44073002B2E
:102C6C0003D0786800F026F905E0786800F019F9CF
:102C7C00786800F028F97B6800221A77BB6803F0AB
:102C8C000103002B0CD0FB6803F00103002B07D0D1
:102C9C007B681B686FF001021A617868FEF74AFDC9
:102CAC00BB6803F08003002B0CD0FB6803F080039F
:102CBC00002B07D07B681B686FF080021A61786864
:102CCC0000F06FFABB6803F04003002B0CD0FB68DC
:102CDC0003F04003002B07D07B681B686FF04002A9
:102CEC001A61786800F0F8F8BB6803F02003002B39
:102CFC000CD0FB6803F02003002B07D07B681B680B
:102D0C006FF020021A61786800F042FA00BF1037A9
:102D1C00BD4680BD80B584B000AF786039600023BB
:102D2C00FB737B6893F83C30012B01D10223B4E098
:102D3C007B68012283F83C207B68022283F83D20CB
:102D4C007B681B689B68BB60BB6823F07703BB6028
:102D5C00BB6823F47F43BB607B681B68BA689A60CE
:102D6C003B681B68B3F5005F3ED0B3F5005F00F223
:102D7C008780B3F5805F00F08680B3F5805F7FD8E5
:102D8C00702B1AD0702B7BD8602B50D0602B77D83F
:102D9C00502B3CD0502B73D8402B58D0402B6FD895
:102DAC00302B64D0302B6BD8202B60D0202B67D8E5
:102DBC00002B5CD0102B5AD062E07B6818683B6803
:102DCC0099683B685A683B68DB6800F06AF97B6875
:102DDC001B689B68BB60BB6843F07703BB607B6878
:102DEC001B68BA689A604FE07B6818683B68996802
:102DFC003B685A683B68DB6800F053F97B681B68DA
:102E0C009A687B681B6842F480429A603CE07B685D
:102E1C0018683B6859683B68DB681A4600F0CAF8CA
:102E2C007B681B685021184600F021F92CE07B6868
:102E3C0018683B6859683B68DB681A4600F0E8F88C
:102E4C007B681B686021184600F011F91CE07B6858
:102E5C0018683B6859683B68DB681A4600F0AAF8AA
:102E6C007B681B684021184600F001F90CE07B6878
:102E7C001A683B681B681946104600F0F8F803E026
:102E8C000123FB7300E000BF7B68012283F83D2027
:102E9C007B68002283F83C20FB7B18461037BD462C
:102EAC0080BD80B483B000AF786000BF0C37BD46E6
:102EBC0080BC704780B483B000AF786000BF0C3723
:102ECC00BD4680BC704780B483B000AF786000BF53
:102EDC000C37BD4680BC704780B483B000AF7860BF
:102EEC0000BF0C37BD4680BC7047000080B485B075
:102EFC0000AF786039607B681B68FB607B682B4A8D
:102F0C00934207D07B68B3F1804F03D07B68284A8B
:102F1C00934208D1FB6823F07003FB603B685B684D
:102F2C00FA681343FB607B68204A934207D07B68A6
:102F3C00B3F1804F03D07B681D4A934208D1FB68E4
:102F4C0023F44073FB603B68DB68FA681343FB6057
:102F5C00FB6823F080023B685B691343FB607B6872
:102F6C00FA681A603B689A687B68DA623B681A6890
:102F7C007B689A627B680D4A934203D13B681A695D
:102F8C007B681A637B6801225A617B681B6903F0BA
:102F9C000103002B05D07B681B6923F001027B68C1
:102FAC001A6100BF1437BD4680BC7047002C01402D
:102FBC000004004080B487B000AFF860B9607A605C
:102FCC00FB681B6A7B61FB681B6A23F00102FB68D0
:102FDC001A62FB689B693B613B6923F0F0033B6120
:102FEC007B681B013A6913433B617B6923F00A033D
:102FFC007B617A69BB6813437B61FB683A699A61B0
:10300C00FB687A691A6200BF1C37BD4680BC7047EA
:10301C0080B487B000AFF860B9607A60FB681B6A57
:10302C007B61FB681B6A23F01002FB681A62FB6869
:10303C009B693B613B6923F470433B617B681B03D9
:10304C003A6913433B617B6923F0A0037B61BB6846
:10305C001B017A6913437B61FB683A699A61FB68CF
:10306C007A691A6200BF1C37BD4680BC704780B4B9
:10307C0085B000AF786039607B689B68FB60FB684B
:10308C0023F07003FB603A68FB68134343F00703BB
:10309C00FB607B68FA689A6000BF1437BD4680BC41
:1030AC00704780B487B000AFF860B9607A603B605D
:1030BC00FB689B687B617B6923F47F437B613B6886
:1030CC001A027B681A43BB6813437A6913437B610A
:1030DC00FB687A699A6000BF1C37BD4680BC70479C
:1030EC0080B485B000AF786039607B6893F83C3071
:1030FC00012B01D1022341E07B68012283F83C20A3
:10310C007B68022283F83D207B681B685B68FB6050
:10311C007B681B689B68BB60FB6823F07003FB60DB
:10312C003B681B68FA681343FB607B681B68FA6892
:10313C005A607B681B68144A934209D07B681B68F1
:10314C00B3F1804F04D07B681B68104A93420CD1BA
:10315C00BB6823F08003BB603B685B68BA681343B1
:10316C00BB607B681B68BA689A607B68012283F835
:10317C003D207B68002283F83C200023184614373E
:10318C00BD4680BC704700BF002C014000040040CD
:10319C0080B483B000AF786000BF0C37BD4680BCF4
:1031AC00704780B483B000AF786000BF0C37BD4669
:1031BC0080BC704703460244934200D1704703F829
:1031CC00011BF9E770B500260C4D0D4C641BA410C7
:1031DC00A64209D100F01AF800260A4D0A4C641BCD
:1031EC00A410A64205D170BD55F8043B9847013692
:1031FC00EEE755F8043B98470136F2E754320008E5
:10320C00543200085432000858320008F8B500BF98
:10321C00F8BC08BC9E467047F8B500BFF8BC08BCAB
:04322C009E46704703
:103230000000000000000000010203040607080966
:1032400002030405060708090A0B0C0D0E0F1010E7
:043250000102000077
:04325400310100083C
:043258000D0100085C
:10325C00010000000100000001000000010000005E
:10326C00C800000001000000010000000100000087
:10327C0001000000C8000000010000000100000077
:10328C000100000001000000C80000000100000067
:10329C000500000003000000020000000100000017
:0C32AC0000127A00100000000100000079
:0400000508001B993B
:00000001FF
