:020000040800F2
:1000000000280020E5190008751900087B19000870
:1000100081190008871900088D19000800000000E8
:10002000000000000000000000000000931900081C
:100030009F19000800000000AB190008B71900085C
:100040002D1A00082D1A00082D1A00082D1A000874
:100050002D1A00082D1A00082D1A00082D1A000864
:100060002D1A00082D1A00082D1A00082D1A000854
:100070002D1A00082D1A00082D1A00082D1A000844
:100080002D1A00082D1A00082D1A00082D1A000834
:100090002D1A00082D1A00082D1A00082D1A000824
:1000A0002D1A00082D1A00082D1A00082D1A000814
:1000B000C51900082D1A0008000000002D1A0008BC
:1000C0002D1A000800000000000000002D1A000892
:1000D000000000002D1A00082D1A00080000000082
:1000E0002D1A00082D1A00082D1A00080000000023
:1000F0000000000000000000000000000000000000
:0C01000000000000000000005FF808F1A3
:10010C0010B5054C237833B9044B13B10448AFF345
:10011C0000800123237010BD5C0000200000000053
:10012C005C30000808B5034B1BB103490348AFF31F
:10013C00008008BD00000000600000205C3000085A
:10014C0080B400AF064B1B68012B04D1044B00227A
:10015C001A60012300E000231846BD4680BC70479E
:10016C007800002080B400AF064B1B68012B04D133
:10017C00044B00221A60012300E000231846BD4600
:10018C0080BC70477C00002080B400AF064B1B681D
:10019C00012B04D1044B00221A60012300E0002340
:1001AC001846BD4680BC70478000002080B400AF6C
:1001BC00034B01221A6000BFBD4680BC704700BFD4
:1001CC007800002080B500AF1F4B1B681F4A1360DE
:1001DC001F4B1B681C4A13604FF400511D4801F063
:1001EC000BFF03461A461A4B1A60184B1A68164B2B
:1001FC001B689A4225D1144B1A68154B1B689A42FE
:10020C001FD1154B1A68124B1B689A420DD0104B1C
:10021C001B68114A13600E4B1B68002B11D1FFF7A2
:10022C00C5FF0E4BC8221A600BE00C4B1B68013B40
:10023C000A4A1360094B1B68002B02D1064B0122A2
:10024C001A6000BF80BD00BF040000200000002029
:10025C0008000020000C01400C00002010000020C1
:10026C0080B500AF1F4B1B681F4A13601F4B1B68E8
:10027C001C4A13604FF480411D4801F0BDFE03463B
:10028C001A461A4B1A60184B1A68164B1B689A427E
:10029C0026D1144B1A68154B1B689A4220D1154B6A
:1002AC001A68124B1B689A420ED0104B1B68114AED
:1002BC0013600E4B1B68002B12D10F4B01221A60DE
:1002CC000E4BC8221A600BE00C4B1B68013B0B4A0F
:1002DC0013600A4B1B68002B02D1064B01221A60DB
:1002EC0000BF80BD18000020140000201C0000205E
:1002FC00000C0140200000207C0000202400002085
:10030C0080B500AF1F4B1B681F4A13601F4B1B6847
:10031C001C4A13604FF400411D4801F06DFE03466A
:10032C001A461A4B1A60184B1A68164B1B689A42DD
:10033C0026D1144B1A68154B1B689A4220D1154BC9
:10034C001A68124B1B689A420ED0104B1B68114A4C
:10035C0013600E4B1B68002B12D10F4B01221A603D
:10036C000E4BC8221A600BE00C4B1B68013B0B4A6E
:10037C0013600A4B1B68002B02D1064B01221A603A
:10038C0000BF80BD2C000020280000203000002081
:10039C00000C0140340000208000002038000020B8
:1003AC0080B500AF904B1B68013B042B00F2118110
:1003BC0001A252F823F000BFD9030008030400087F
:1003CC0077040008F30400086505000800F07EFAC5
:1003DC0000F058FA844B02221A604FF47A7001F044
:1003EC00CBF9824B1B684FF47A7202FB03F318466D
:1003FC0001F08AF9F6E000F087FA00F0DDFA7C4BA8
:10040C001B68012B0DD17B4B1B68013B794A136098
:10041C00794B1B68013B784A13604FF47A7001F0FA
:10042C00ABF9764B1B68012B0FD16F4B03221A6073
:10043C006E4B1B68704A1360714B1B684FF47A72D9
:10044C0002FB03F3184601F05FF9FFF779FE034650
:10045C00012B40F0C08000F039FA634B0C221A607B
:10046C0040F6B83001F050F9B5E000F04DFA00F06C
:10047C00B9FA5F4B1B68012B0DD15E4B1B68013B1E
:10048C005C4A13605F4B1B68013B5E4A13604FF480
:10049C007A7001F071F9594B1B68012B13D1524B37
:1004AC0004221A60564B1B68564A1360564B1B6845
:1004BC00504A13604D4B1B684FF47A7202FB03F3E6
:1004CC00184601F021F9FFF73BFE0346012B40F0E3
:1004DC00848000F0FBF9444B0C221A6042F210703D
:1004EC0001F012F979E000F025FA00F04FFA404BD8
:1004FC001B68012B0DD13F4B1B68013B3D4A136020
:10050C003D4B1B68013B3C4A13604FF47A7001F081
:10051C0033F93A4B1B68012B0FD1334B05221A6070
:10052C00324B1B68344A1360354B1B684FF47A729C
:10053C0002FB03F3184601F0E7F8FFF701FE034650
:10054C00012B4CD100F0C2F9274B0C221A6042F25D
:10055C00107001F0D9F842E000F002FA00F016FA3F
:10056C00234B1B68012B0DD1224B1B68013B214AED
:10057C001360244B1B68013B224A13604FF47A70C2
:10058C0001F0FAF81D4B1B68012B13D1164B0222FC
:10059C001A601D4B1B68174A1360194B1B68194ACC
:1005AC001360124B1B684FF47A7202FB03F318466C
:1005BC0001F0AAF8FFF7C4FD0346012B11D100F09E
:1005CC0085F9094B02221A6042F2107001F09CF876
:1005DC0007E000BF06E000BF04E000BF02E000BF80
:1005EC0000E000BF00BF80BD3C00002044000020A4
:1005FC00A4000020B0000020B400002094000020D3
:10060C0048000020B80000204000002080B500AF5A
:10061C00714B1B680E2B00F08F800E2B00F3D380D8
:10062C000C2B02D00D2B44D0CDE06C4B1B68012B56
:10063C0005D100F0EDF94FF4FA7001F0B9F8684B00
:10064C001B68012B06D1644B02221A6042F2107017
:10065C0001F05AF8FFF774FD0346012B0AD1614BE8
:10066C001B68614A13605C4B0D221A6042F21070D9
:10067C0001F04AF8FFF776FD0346012B0FD15A4BD8
:10068C001B680133584A1360574B1B68632B02DD00
:10069C00554B00221A6042F2107001F035F8FFF74A
:1006AC0073FD0346012B40F090804B4B15221A60D2
:1006BC008BE04A4B1B68012B05D100F0EDF94FF490
:1006CC00FA7001F075F8464B1B68012B06D1424BB2
:1006DC0002221A6042F2107001F016F8FFF730FD9A
:1006EC000346012B0AD1414B1B68414A13603A4B1C
:1006FC000E221A6042F2107001F006F8FFF732FD7C
:10070C000346012B0FD13A4B1B680133384A136057
:10071C00374B1B68632B02DD354B00221A6042F20B
:10072C00107000F0F1FFFFF72FFD0346012B4ED1A7
:10073C00294B16221A604AE0284B1B68012B05D165
:10074C0000F088F94FF4FA7001F032F8244B1B6872
:10075C00012B0AD1274B1B68274A13601E4B022220
:10076C001A6042F2107000F0CFFFFFF7E9FC03466D
:10077C00012B0AD11F4B1B681F4A1360164B012219
:10078C001A604FF47A7000F0BFFFFFF7EBFC0346E2
:10079C00012B0FD1184B1B680133174A1360164BF2
:1007AC001B68632B02DD144B00221A6042F210709E
:1007BC0000F0AAFFFFF7E8FC0346002B09D0064B1C
:1007CC0017221A6005E000BF04E000BF02E000BF82
:1007DC0000E000BF00BF80BD3C000020AC0000204A
:1007EC009400002040000020B000002048000020B1
:1007FC00B800002044000020B400002080B400AFFA
:10080C00194B1B68172B1ED0172B28DC152B02D06D
:10081C00162B0CD023E0154B1B68154A1360144B98
:10082C001B68124A1360104B0C221A6018E0114B13
:10083C001B68114A1360104B1B680E4A13600A4B5D
:10084C000D221A600CE00D4B1B680D4A13600C4B0B
:10085C001B680A4A1360044B0E221A6000E000BFAA
:10086C0000BFBD4680BC70473C000020B00000209B
:10087C0040000020B800002048000020B4000020F8
:10088C004400002080B500AF002201210E4801F089
:10089C00CAFB002202210C4801F0C5FB00220421F6
:1008AC00094801F0C0FB00220821074801F0BBFBFE
:1008BC0000221021044801F0B6FB0022202102483E
:1008CC0001F0B1FB00BF80BD000C014080B400AF53
:1008DC00074B1B68074A1360074B1B68074A1360DA
:1008EC00074B1B68074A136000BFBD4680BC7047AE
:1008FC0040000020B000002044000020B400002084
:10090C0048000020B800002080B500AF0122012172
:10091C00074801F088FB00220221054801F083FB07
:10092C0000220421024801F07EFB00BF80BD00BF05
:10093C00000C014080B500AF00220121074801F0F6
:10094C0072FB01220221054801F06DFB00220421FB
:10095C00024801F068FB00BF80BD00BF000C0140E5
:10096C0080B500AF00220121074801F05CFB00229A
:10097C000221054801F057FB01220421024801F035
:10098C0052FB00BF80BD00BF000C014080B500AF22
:10099C0001220821074801F046FB002210210548DE
:1009AC0001F041FB00222021024801F03CFB00BF7A
:1009BC0080BD00BF000C014080B500AF00220821B3
:1009CC00074801F030FB01221021054801F02BFBF8
:1009DC0000222021024801F026FB00BF80BD00BF91
:1009EC00000C014080B500AF00220821074801F03F
:1009FC001AFB00221021054801F015FB01222021D1
:100A0C00024801F010FB00BF80BD00BF000C01408C
:100A1C0080B500AF002202210D4801F004FB00223A
:100A2C0004210B4801F0FFFA00221021084801F0C4
:100A3C00FAFA00222021064801F0F5FA01210448B7
:100A4C0001F009FB0821024801F005FB00BF80BD45
:100A5C00000C014080B500AF002201210D4801F0CF
:100A6C00E2FA02210B4801F0F6FA002204210948AF
:100A7C0001F0D9FA00220821064801F0D4FA10211D
:100A8C00044801F0E8FA00222021024801F0CBFAD8
:100A9C0000BF80BD000C014080B500AF00220121D9
:100AAC000D4801F0C0FA002202210B4801F0BBFAFC
:100ABC000421094801F0CFFA00220821064801F070
:100ACC00B2FA00221021044801F0ADFA20210248AC
:100ADC0001F0C1FA00BF80BD000C014080B400AF32
:100AEC001E4B1B68023B0C2B31D801A252F823F091
:100AFC00310B0008370B00083D0B0008430B0008B6
:100B0C005B0B00085B0B00085B0B00085B0B000821
:100B1C005B0B00085B0B0008490B0008550B000829
:100B2C004F0B00080E4B1B6813E00D4B1B6810E0BD
:100B3C000C4B1B680DE00C4B1B680AE0084B1B6848
:100B4C0007E0084B1B6804E0074B1B6801E000BF83
:100B5C0000231846BD4680BC704700BF3C000020F7
:100B6C00B0000020B4000020B800002080B400AF1A
:100B7C001E4B1B68023B0C2B31D801A252F823F000
:100B8C00C10B0008C70B0008CD0B0008D30B0008E5
:100B9C00EB0B0008EB0B0008EB0B0008EB0B000851
:100BAC00EB0B0008EB0B0008D90B0008E50B000859
:100BBC00DF0B00080E4B1B6813E00E4B1B6810E09C
:100BCC000D4B1B680DE00C4B1B680AE00A4B1B68B5
:100BDC0007E0074B1B6804E0064B1B6801E000BFF5
:100BEC0000231846BD4680BC704700BF3C00002067
:100BFC00B4000020B8000020B000002080B582B006
:100C0C0000AF78607B68092B00F2C88101A252F812
:100C1C0023F000BF490C00089F0C0008F50C0008DD
:100C2C004B0D0008A10D0008F70D00084D0E000833
:100C3C00A30E0008F90E00084F0F000800224FF415
:100C4C000071D54801F0EFF900224FF48061D248D1
:100C5C0001F0E9F900224FF40061CF4801F0E3F90B
:100C6C0000224FF48051CC4801F0DDF900224FF402
:100C7C000051C94801F0D7F900224FF48041C64811
:100C8C0001F0D1F901224FF40041C34801F0CBF936
:100C9C0085E101224FF40071BF4801F0C4F9002234
:100CAC004FF48061BC4801F0BEF900224FF40061A2
:100CBC00B94801F0B8F901224FF48051B64801F05F
:100CCC00B2F901224FF40051B34801F0ACF9012202
:100CDC004FF48041B04801F0A6F901224FF40041D5
:100CEC00AD4801F0A0F95AE100224FF40071AA4876
:100CFC0001F099F900224FF48061A74801F093F9B3
:100D0C0001224FF40061A44801F08DF900224FF448
:100D1C008051A14801F087F900224FF400519E4800
:100D2C0001F081F901224FF480419B4801F07BF9DD
:100D3C0000224FF40041984801F075F92FE1002290
:100D4C004FF40071944801F06EF900224FF4806169
:100D5C00914801F068F900224FF400618E4801F0CF
:100D6C0062F900224FF480518B4801F05CF90122AA
:100D7C004FF40051884801F056F901224FF480419C
:100D8C00854801F050F900224FF40041824801F0EF
:100D9C004AF904E101224FF400717F4801F043F954
:100DAC0000224FF480617C4801F03DF900224FF4A1
:100DBC000061794801F037F901224FF480517648EF
:100DCC0001F031F901224FF40051734801F02BF975
:100DDC0000224FF48041704801F025F900224FF4B5
:100DEC0000416D4801F01FF9D9E000224FF4007169
:100DFC00694801F018F901224FF48061664801F04E
:100E0C0012F900224FF40061634801F00CF9002242
:100E1C004FF48051604801F006F901224FF4005163
:100E2C005D4801F000F900224FF480415A4801F06E
:100E3C00FAF800224FF40041574801F0F4F8AEE004
:100E4C0000224FF40071544801F0EDF801224FF4E8
:100E5C008061514801F0E7F800224FF400614E48E0
:100E6C0001F0E1F800224FF480514B4801F0DBF81F
:100E7C0000224FF40051484801F0D5F800224FF4FD
:100E8C008041454801F0CFF800224FF40041424820
:100E9C0001F0C9F883E000224FF400713E4801F0E4
:100EAC00C2F800224FF480613B4801F0BCF80022EC
:100EBC004FF40061384801F0B6F801224FF480512C
:100ECC00354801F0B0F801224FF40051324801F0DE
:100EDC00AAF801224FF480412F4801F0A4F8012216
:100EEC004FF400412C4801F09EF858E000224FF4DA
:100EFC000071294801F097F800224FF480612648D0
:100F0C0001F091F800224FF40061234801F08BF8B6
:100F1C0000224FF48051204801F085F800224FF454
:100F2C0000511D4801F07FF800224FF480411A480F
:100F3C0001F079F800224FF40041174801F073F8E2
:100F4C002DE000224FF40071134801F06CF80022E0
:100F5C004FF48061104801F066F800224FF40061F4
:100F6C000D4801F060F800224FF480510A4801F05E
:100F7C005AF801224FF40051074801F054F80022AE
:100F8C004FF48041044801F04EF800224FF4004128
:100F9C00014801F048F802E00008014000BF00BF22
:100FAC000837BD4680BD00BF80B400AF164B1B6830
:100FBC00032B0BD0144B1B68022B07D0124B1B6856
:100FCC00042B03D0104B1B68052B03D10F4B0122B4
:100FDC001A6012E00C4B1B680C2B03D10B4B02223A
:100FEC001A600AE0084B1B680D2B03D1074B032238
:100FFC001A6002E0054B04221A60044B1B68184669
:10100C00BD4680BC704700BF3C0000204C00002057
:10101C0080B582B000AF7860FFF7C6FF7B68013BFC
:10102C00032B00F2AF8001A252F823F04910000804
:10103C009B100008ED1000083F1100080122402110
:10104C00534800F0F0FF00228021514800F0EBFFE4
:10105C0000224FF480714E4800F0E5FF01224FF45E
:10106C0000714B4800F0DFFF01224FF480614848CB
:10107C0000F0D9FF01224FF40061454800F0D3FF86
:10108C0001224FF48051424800F0CDFF7BE000225A
:10109C0040213F4800F0C7FF002280213C4800F06F
:1010AC00C2FF01224FF48071394800F0BCFF0022CE
:1010BC004FF40071364800F0B6FF00224FF4806107
:1010CC00334800F0B0FF01224FF40061304800F0CB
:1010DC00AAFF00224FF480512D4800F0A4FF52E0EB
:1010EC00002240212A4800F09EFF0022802128483F
:1010FC0000F099FF00224FF48071254800F093FF17
:10110C0000224FF40071224800F08DFF01224FF4B1
:10111C0080611F4800F087FF01224FF400611C48DA
:10112C0000F081FF00224FF48051194800F07BFF42
:10113C0029E001224021164800F075FF0022802191
:10114C00134800F070FF00224FF48071104800F03B
:10115C006AFF01224FF400710D4800F064FF012278
:10116C004FF480610A4800F05EFF00224FF40061EA
:10117C00074800F058FF00224FF48051044800F05B
:10118C0052FF00E000BF00BF0837BD4680BD00BF66
:10119C00000C014080B582B000AF78607B685A4289
:1011AC0003F0030302F0030258BF53427B607B68D9
:1011BC00032B00F2998001A252F823F0D9110008F8
:1011CC001B12000867120008A91200080022022155
:1011DC00474800F028FF01220421454800F023FF76
:1011EC0001220821424800F01EFF01221021404834
:1011FC0000F019FFFFF772FC03463E4A82FB031214
:10120C009210DB17D31A1846FFF7F8FC6CE001229A
:10121C000221374800F007FF00220421344800F077
:10122C0002FF01220821324800F0FDFE01221021AC
:10123C002F4800F0F8FEFFF751FC01462D4B83FBC5
:10124C0001239A10CB17D21A13469B0013445B0050
:10125C00CA1A1046FFF7D2FC46E0012202212448AC
:10126C0000F0E1FE01220421214800F0DCFE002206
:10127C0008211F4800F0D7FE012210211C4800F065
:10128C00D2FEFFF773FC03461A4A82FB031292103C
:10129C00DB17D31A1846FFF7B1FC25E00122022117
:1012AC00134800F0C0FE01220421114800F0BBFEDF
:1012BC00012208210E4800F0B6FE002210210C4835
:1012CC0000F0B1FEFFF752FC01460A4B83FB0123F1
:1012DC009A10CB17D21A13469B0013445B00CA1A00
:1012EC001046FFF78BFC00BF00BF0837BD4680BD22
:1012FC00000801406766666680B500AF0B4B1B6843
:10130C00012B11D10A4B1B68032B02DD084B002269
:10131C001A60074B1B685A1C05490A601846FFF7F0
:10132C0039FFFA2000F00CFA00BF80BD9C000020B1
:10133C008400002080B500AF00F074FB00F038F89A
:10134C0000F0BEF800F070F8154801F0C9FA6420FE
:10135C0000F0BEF9642000F0D7F9642000F0F0F939
:10136C00642000F009FA642000F022FA0D4B1B688F
:10137C00012B07D120210C4800F06DFE4FF47A7040
:10138C0000F0A6F9094B1B681846FFF741FEFFF762
:10139C0007F8FFF73BF9FFF731FAFFF7ADFFE5E789
:1013AC00BC0000208C000020000801404C000020F4
:1013BC0080B590B000AF07F1180328220021184621
:1013CC0001F03EFE3B1D00221A605A609A60DA6002
:1013DC001A610223BB610123BB621023FB62002351
:1013EC007B6307F11803184600F04EFE0346002BF2
:1013FC0001D000F0F5F80F237B600023BB600023C5
:10140C00FB6000233B6100237B613B1D00211846E0
:10141C0001F0BAF80346002B01D000F0E1F800BF50
:10142C004037BD4680BD000080B586B000AF07F1E7
:10143C00080300221A605A609A60DA603B46002268
:10144C001A605A601D4B4FF080421A601B4B41F6DC
:10145C003F725A60194B00229A60184B0922DA60CD
:10146C00164B00221A61154B00229A61134801F0A9
:10147C00E7F90346002B01D000F0B2F84FF480538B
:10148C00BB6007F1080319460C4801F065FB0346E5
:10149C00002B01D000F0A4F800233B6000237B60FC
:1014AC003B461946054801F03DFD0346002B01D093
:1014BC0000F096F800BF1837BD4680BDBC00002078
:1014CC0080B588B000AF07F1100300221A605A6093
:1014DC009A60DA60354B9B69344A43F01003936190
:1014EC00324B9B6903F01003FB60FB682F4B9B692D
:1014FC002E4A43F0040393612C4B9B6903F00403C5
:10150C00BB60BB68294B9B69284A43F00803936175
:10151C00264B9B6903F008037B607B6800224FF627
:10152C00FE71234800F07FFD002241F6FF71214837
:10153C0000F079FD4FF400533B6100237B610123E4
:10154C00BB6107F1100319461B4800F0DBFB4FF69B
:10155C00FE733B6101237B610023BB610223FB61B2
:10156C0007F110031946124800F0CCFB41F6FF734B
:10157C003B6101237B610023BB610223FB6107F10B
:10158C00100319460B4800F0BDFB4FF460433B6160
:10159C0000237B610123BB6107F110031946054849
:1015AC0000F0B0FB00BF2037BD4680BD00100240EC
:1015BC0000080140000C01400010014080B582B0D1
:1015CC0000AF786000F012F8FEF7FCFDFEF748FE65
:1015DC00FEF796FE00F008F900BF0837BD4680BD47
:1015EC0080B400AF72B600BFFEE7000080B483B0D9
:1015FC0000AF0023FB715FE0FA79344913469B007E
:10160C0013449B000B441B68002B52D0FA792F49D2
:10161C0013469B0013449B000B4404331B68FA795C
:10162C00591E2A4813469B0013449B000344043361
:10163C001960FA79254913469B0013449B000B440F
:10164C0004331B68002B34DCFA79204913469B00C9
:10165C0013449B000B440C3393F90030DBB2013381
:10166C00DBB2FA7958B2194913469B0013449B001C
:10167C000B440C3302461A70FA79144913469B003A
:10168C0013449B000B4408331B68002B11D0F979D1
:10169C00FA790E480B469B000B449B00034408331D
:1016AC0019680A4813469B0013449B0003440433F7
:1016BC001960FB790133FB71FB79092B9CD900BFB5
:1016CC0000BF0C37BD4680BC704700BF0401002032
:1016DC0080B483B000AF78607B68084A82FB031249
:1016EC009210DB17D31A064A1360064B00221A60BD
:1016FC0000BF0C37BD4680BC704700BF676666668E
:10170C00880000208C00002080B483B000AF78608B
:10171C007B68084A82FB03129210DB17D31A064A25
:10172C001360064B00221A6000BF0C37BD4680BC0C
:10173C00704700BF6766666690000020940000202A
:10174C0080B483B000AF78607B68084A82FB0312D8
:10175C009210DB17D31A064A1360064B00221A604C
:10176C0000BF0C37BD4680BC704700BF676666661D
:10177C00980000209C00002080B483B000AF7860FB
:10178C007B68084A82FB03129210DB17D31A064AB5
:10179C001360064B00221A6000BF0C37BD4680BC9C
:1017AC00704700BF67666666A0000020A40000209A
:1017BC0080B483B000AF78607B68084A82FB031268
:1017CC009210DB17D31A064A1360064B00221A60DC
:1017DC0000BF0C37BD4680BC704700BF67666666AD
:1017EC00A8000020AC00002080B400AF294B1B687F
:1017FC00002B0BDD274B1B68013B264A1360254B46
:10180C001B68002B02DC244B01221A60234B1B6843
:10181C00002B0BDD214B1B68013B204A13601F4B37
:10182C001B68002B02DC1E4B01221A601D4B1B682F
:10183C00002B0BDD1B4B1B68013B1A4A1360194B29
:10184C001B68002B02DC184B01221A60174B1B681B
:10185C00002B0BDD154B1B68013B144A1360134B1B
:10186C001B68002B02DC124B01221A60114B1B6807
:10187C00002B0BDD0F4B1B68013B0E4A13600D4B0D
:10188C001B68002B02DC0C4B01221A6000BFBD460A
:10189C0080BC7047880000208C0000209000002045
:1018AC0094000020980000209C000020A000002044
:1018BC00A4000020A8000020AC00002080B485B05B
:1018CC0000AF154B9B69144A43F001039361124B13
:1018DC009B6903F00103BB60BB680F4BDB690E4ACD
:1018EC0043F08053D3610C4BDB6903F080537B6076
:1018FC007B680A4B5B68FB60FB6823F0E063FB6072
:10190C00FB6843F08063FB60044AFB68536000BFD4
:10191C001437BD4680BC70470010024000000140E7
:10192C0080B584B000AF78607B681B68B3F1804FE2
:10193C0013D10C4BDB690B4A43F00103D361094B08
:10194C00DB6903F00103FB60FB68002200211C2013
:10195C0000F0A1F91C2000F0BAF900BF1037BD4609
:10196C0080BD00BF0010024080B400AFFEE780B421
:10197C0000AFFEE780B400AFFEE780B400AFFEE737
:10198C0080B400AFFEE780B400AF00BFBD4680BCA2
:10199C00704780B400AF00BFBD4680BC704780B4B8
:1019AC0000AF00BFBD4680BC704780B500AF00F0F3
:1019BC007FF800BF80BD000080B500AF024800F08A
:1019CC00DBFF00BF80BD00BFBC00002080B400AFB7
:1019DC0000BFBD4680BC7047FFF7F8FF0B480C49B1
:1019EC000C4A002302E0D458C4500433C4188C426F
:1019FC00F9D3094A094C002301E013600432A242D6
:101A0C00FBD301F0F9FAFFF795FC704700000020BA
:101A1C005C000020A03000085C000020D0010020F9
:101A2C00FEE7000080B500AF084B1B68074A43F087
:101A3C0010031360032000F023F90F2000F008F8C6
:101A4C00FFF73CFF0023184680BD00BF002002407A
:101A5C0080B582B000AF7860124B1A68124B1B78BD
:101A6C0019464FF47A73B3FBF1F3B2FBF3F3184658
:101A7C0000F03BF90346002B01D001230EE07B68FC
:101A8C000F2B0AD8002279684FF0FF3000F003F9D1
:101A9C00064A7B681360002300E0012318460837D0
:101AAC00BD4680BD5000002058000020540000208E
:101ABC0080B400AF054B1B781A46054B1B681344CA
:101ACC00034A136000BFBD4680BC7047580000201D
:101ADC00CC01002080B400AF024B1B681846BD46F9
:101AEC0080BC7047CC01002080B485B000AF78601A
:101AFC007B6803F00703FB600C4BDB68BB60BA68C8
:101B0C004FF6FF031340BB60FB681A02BB6813431C
:101B1C0043F0BF6343F40033BB60044ABB68D3603B
:101B2C0000BF1437BD4680BC704700BF00ED00E01D
:101B3C0080B400AF044BDB681B0A03F007031846A4
:101B4C00BD4680BC704700BF00ED00E080B483B0A0
:101B5C0000AF0346FB7197F90730002B0BDBFB79C9
:101B6C0003F01F02064997F907305B09012000FAC0
:101B7C0002F241F8232000BF0C37BD4680BC7047F1
:101B8C0000E100E080B483B000AF03463960FB7124
:101B9C0097F90730002B0ADB3B68DAB20C4997F94E
:101BAC0007301201D2B20B4483F800230AE03B68E1
:101BBC00DAB20849FB7903F00F03043B1201D2B2ED
:101BCC000B441A7600BF0C37BD4680BC704700BF73
:101BDC0000E100E000ED00E080B489B000AFF860F7
:101BEC00B9607A60FB6803F00703FB61FB69C3F122
:101BFC000703042B28BF0423BB61FB690433062BAA
:101C0C0002D9FB69033B00E000237B614FF0FF32FC
:101C1C00BB6902FA03F3DA43BB681A407B699A404A
:101C2C004FF0FF317B6901FA03F3D9437B680B401A
:101C3C00134318462437BD4680BC704780B582B02C
:101C4C0000AF78607B68013BB3F1807F01D3012347
:101C5C000FE00A4A7B68013B53600F214FF0FF30C5
:101C6C00FFF790FF054B00229A60044B07221A6085
:101C7C00002318460837BD4680BD00BF10E000E0C9
:101C8C0080B582B000AF78607868FFF72DFF00BF99
:101C9C000837BD4680BD80B586B000AF0346B9603D
:101CAC007A60FB7300237B61FFF742FF78617A68EF
:101CBC00B9687869FFF790FF024697F90F30114623
:101CCC001846FFF75FFF00BF1837BD4680BD80B5D3
:101CDC0082B000AF0346FB7197F907301846FFF747
:101CEC0035FF00BF0837BD4680BD80B582B000AF60
:101CFC0078607868FFF7A2FF034618460837BD46A0
:101D0C0080BD000080B48BB000AF786039600023D8
:101D1C007B6200233B6248E101227B6A02FA03F3F7
:101D2C00FB613B681B68FA691340BB61BA69FB69CC
:101D3C009A4240F037813B685B68A34A93425ED07D
:101D4C00A14A934275D8A14A934258D09F4A9342D4
:101D5C006FD89F4A934252D09D4A934269D89D4A6C
:101D6C0093424CD09B4A934263D89B4A934246D0B1
:101D7C00994A93425DD8122B2AD8122B59D801A21A
:101D8C0052F823F00B1E0008E51D0008F71D000893
:101D9C00391E00083F1E00083F1E00083F1E0008A9
:101DAC003F1E00083F1E00083F1E00083F1E000893
:101DBC003F1E00083F1E00083F1E00083F1E000883
:101DCC003F1E00083F1E0008ED1D0008011E000804
:101DDC00824A934213D02CE03B68DB683B6229E0DB
:101DEC003B68DB6804333B6224E03B68DB68083308
:101DFC003B621FE03B68DB680C333B621AE03B68DC
:101E0C009B68002B02D104233B6213E03B689B6868
:101E1C00012B05D108233B627B68FA691A6109E042
:101E2C0008233B627B68FA695A6103E000233B623A
:101E3C0000E000BFBB69FF2B01D87B6801E07B6829
:101E4C0004337B61BB69FF2B02D87B6A9B0002E0E9
:101E5C007B6A083B9B003B617B691A680F213B69DD
:101E6C0001FA03F3DB431A40396A3B6901FA03F3C5
:101E7C001A437B691A603B685B6803F08053002B44
:101E8C0000F09080564B9B69554A43F001039361D7
:101E9C00534B9B6903F00103BB60BB68514A7B6ADF
:101EAC009B08023352F82330FB607B6A03F0030378
:101EBC009B000F2202FA03F3DB43FA681340FB602A
:101ECC007B68494A93420DD07B68484A934207D0BD
:101EDC007B68474A934201D1022304E0032302E0CA
:101EEC00012300E000237A6A02F00302920093407F
:101EFC00FA681343FB603B497B6A9B080233FA6820
:101F0C0041F823203B685B6803F48013002B06D058
:101F1C00384B9A683749BB6913438B6006E0354BE5
:101F2C009A68BB69DB43334913408B603B685B6841
:101F3C0003F40013002B06D02E4BDA682D49BB6935
:101F4C001343CB6006E02B4BDA68BB69DB432949B2
:101F5C001340CB603B685B6803F40033002B06D066
:101F6C00244B5A682349BB6913434B6006E0214B51
:101F7C005A68BB69DB431F4913404B603B685B6885
:101F8C0003F48033002B06D01A4B1A681949BB692D
:101F9C0013430B6006E0174B1A68BB69DB4315490A
:101FAC0013400B607B6A01337B623B681A687B6A67
:101FBC0022FA03F3002B7FF4AFAE00BF00BF2C3727
:101FCC00BD4680BC704700BF0000321000003110CD
:101FDC00000022100000211000001210000011104F
:101FEC00001002400000014000080140000C0140BC
:101FFC00001001400004014080B485B000AF78604F
:10200C000B467B807B689A687B881340002B02D040
:10201C000123FB7301E00023FB73FB7B1846143791
:10202C00BD4680BC704780B483B000AF78600B466F
:10203C007B8013467B707B78002B03D07A887B687F
:10204C001A6103E07B881A047B681A6100BF0C37A5
:10205C00BD4680BC704780B485B000AF78600B463D
:10206C007B807B68DB68FB607A88FB6813401A0412
:10207C00FB68D9437B880B401A437B681A6100BF0D
:10208C001437BD4680BC704780B586B000AF786011
:10209C007B68002B01D101236CE27B681B6803F089
:1020AC000103002B00F08780924B5B6803F00C035C
:1020BC00042B0CD08F4B5B6803F00C03082B12D154
:1020CC008C4B5B6803F48033B3F5803F0BD1894BA9
:1020DC001B6803F40033002B6CD07B685B68002B0F
:1020EC0068D1012346E27B685B68B3F5803F06D17B
:1020FC00804B1B687F4A43F4803313602EE07B686F
:10210C005B68002B0CD17B4B1B687A4A23F4803321
:10211C001360784B1B68774A23F4802313601DE00F
:10212C007B685B68B3F5A02F0CD1724B1B68714AAE
:10213C0043F4802313606F4B1B686E4A43F4803367
:10214C0013600BE06B4B1B686A4A23F480331360FB
:10215C00684B1B68674A23F4802313607B685B68B9
:10216C00002B13D0FFF7B6FC386108E0FFF7B2FC88
:10217C0002463B69D31A642B01D90323FAE15D4B68
:10218C001B6803F40033002BF0D014E0FFF7A2FC23
:10219C00386108E0FFF79EFC02463B69D31A642BBA
:1021AC0001D90323E6E1534B1B6803F40033002BE6
:1021BC00F0D100E000BF7B681B6803F00203002B2A
:1021CC0063D04C4B5B6803F00C03002B0BD0494BDA
:1021DC005B6803F00C03082B1CD1464B5B6803F4C3
:1021EC008033002B16D1434B1B6803F00203002BEA
:1021FC0005D07B681B69012B01D00123BAE13D4B53
:10220C001B6823F0F8027B685B69DB0039491343D8
:10221C000B603AE07B681B69002B20D0364B012207
:10222C001A60FFF757FC386108E0FFF753FC0246D1
:10223C003B69D31A022B01D903239BE12D4B1B685D
:10224C0003F00203002BF0D02A4B1B6823F0F8029A
:10225C007B685B69DB00274913430B6015E0264B59
:10226C0000221A60FFF736FC386108E0FFF732FCF9
:10227C0002463B69D31A022B01D903237AE11D4B89
:10228C001B6803F00203002BF0D17B681B6803F082
:10229C000803002B3AD07B689B69002B19D0174B95
:1022AC0001221A60FFF716FC386108E0FFF712FCF8
:1022BC0002463B69D31A022B01D903235AE10D4B79
:1022CC005B6A03F00203002BF0D0012000F09AFAB5
:1022DC001CE00A4B00221A60FFF7FCFB38610FE090
:1022EC00FFF7F8FB02463B69D31A022B08D90323EC
:1022FC0040E100BF00100240000042428004424214
:10230C009E4B5B6A03F00203002BE9D17B681B68D0
:10231C0003F00403002B00F0A6800023FB75974B01
:10232C00DB6903F08053002B0DD1944BDB69934A8E
:10233C0043F08053D361914BDB6903F08053BB6056
:10234C00BB680123FB758E4B1B6803F48073002B59
:10235C0018D18B4B1B688A4A43F480731360FFF7C8
:10236C00B9FB386108E0FFF7B5FB02463B69D31AAD
:10237C00642B01D90323FDE0814B1B6803F48073AC
:10238C00002BF0D07B68DB68012B06D17B4B1B6AE2
:10239C007A4A43F0010313622DE07B68DB68002B63
:1023AC000CD1764B1B6A754A23F001031362734BF5
:1023BC001B6A724A23F0040313621CE07B68DB681F
:1023CC00052B0CD16D4B1B6A6C4A43F00403136252
:1023DC006A4B1B6A694A43F0010313620BE0674BBB
:1023EC001B6A664A23F001031362644B1B6A634A3F
:1023FC0023F0040313627B68DB68002B15D0FFF716
:10240C0069FB38610AE0FFF765FB02463B69D31AAA
:10241C0041F28832934201D90323ABE0574B1B6A3C
:10242C0003F00203002BEED014E0FFF753FB3861EE
:10243C000AE0FFF74FFB02463B69D31A41F28832A0
:10244C00934201D9032395E04C4B1B6A03F0020322
:10245C00002BEED1FB7D012B05D1484BDB69474AA4
:10246C0023F08053D3617B68DB69002B00F0818003
:10247C00424B5B6803F00C03082B61D07B68DB6973
:10248C00022B46D13F4B00221A60FFF723FB386129
:10249C0008E0FFF71FFB02463B69D31A022B01D958
:1024AC00032367E0354B1B6803F00073002BF0D15E
:1024BC007B681B6AB3F5803F08D1304B5B6823F413
:1024CC0000327B689B682D4913434B602B4B5B6838
:1024DC0023F474127B68196A7B685B6A0B43274987
:1024EC0013434B60274B01221A60FFF7F3FA386154
:1024FC0008E0FFF7EFFA02463B69D31A022B01D929
:10250C00032337E01D4B1B6803F00073002BF0D046
:10251C002FE01C4B00221A60FFF7DCFA386108E050
:10252C00FFF7D8FA02463B69D31A022B01D90323D1
:10253C0020E0124B1B6803F00073002BF0D118E065
:10254C007B68DB69012B01D1012313E00B4B5B682A
:10255C00FB60FB6803F480327B681B6A9A4206D1ED
:10256C00FB6803F470127B685B6A9A4201D001230A
:10257C0000E0002318461837BD4680BD001002400D
:10258C00007000406000424280B584B000AF7860BB
:10259C0039607B68002B01D10123D0E06A4B1B68AA
:1025AC0003F007033A689A4210D9674B1B6823F073
:1025BC00070265493B6813430B60634B1B6803F0D0
:1025CC0007033A689A4201D00123B8E07B681B6884
:1025DC0003F00203002B20D07B681B6803F004037C
:1025EC00002B05D0594B5B68584A43F4E0635360A9
:1025FC007B681B6803F00803002B05D0534B5B680A
:10260C00524A43F460535360504B5B6823F0F00222
:10261C007B689B684D4913434B607B681B6803F0D8
:10262C000103002B40D07B685B68012B07D1474B23
:10263C001B6803F40033002B15D101237FE07B686A
:10264C005B68022B07D1414B1B6803F00073002B16
:10265C0009D1012373E03D4B1B6803F00203002BEF
:10266C0001D101236BE0394B5B6823F003027B68DB
:10267C005B68364913434B60FFF72CFAF8600AE0AD
:10268C00FFF728FA0246FB68D31A41F288329342CC
:10269C0001D9032353E02D4B5B6803F00C027B68DC
:1026AC005B689B009A42EBD1274B1B6803F0070336
:1026BC003A689A4210D2244B1B6823F00702224935
:1026CC003B6813430B60204B1B6803F007033A680D
:1026DC009A4201D0012332E07B681B6803F00403AB
:1026EC00002B08D0194B5B6823F4E0627B68DB6835
:1026FC00164913434B607B681B6803F00803002BDF
:10270C0009D0124B5B6823F460527B681B69DB00B9
:10271C000E4913434B6000F021F802460B4B5B68EB
:10272C001B0903F00F030A49CB5C22FA03F3094A95
:10273C001360094B1B681846FFF78AF900231846EB
:10274C001037BD4680BD00BF002002400010024083
:10275C0074300008500000205400002080B487B072
:10276C0000AF0023FB600023BB6000237B610023D0
:10277C007B6000233B611E4B5B68FB60FB6803F0D6
:10278C000C03042B02D0082B03D027E0194B3B6120
:10279C0027E0FB689B0C03F00F03174AD35C7B60AC
:1027AC00FB6803F48033002B10D0114B5B685B0C7F
:1027BC0003F00103114AD35CBB607B680D4A02FB3A
:1027CC0003F2BB68B2FBF3F37B6104E07B680C4A59
:1027DC0002FB03F37B617B693B6102E0054B3B61D0
:1027EC0000BF3B6918461C37BD4680BC704700BF14
:1027FC000010024000127A00843000089430000867
:10280C0000093D0080B485B000AF78600A4B1B68AE
:10281C000A4AA2FB03235B0A7A6802FB03F3FB6000
:10282C0000BFFB685A1EFA60002BF9D100BF00BF35
:10283C001437BD4680BC704750000020D34D621049
:10284C0080B582B000AF78607B68002B01D101238A
:10285C0041E07B6893F83D30DBB2002B06D17B68FE
:10286C00002283F83C207868FFF75AF87B68022234
:10287C0083F83D207B681A687B6804331946104640
:10288C0000F056FA7B68012283F846207B6801220F
:10289C0083F83E207B68012283F83F207B6801226D
:1028AC0083F840207B68012283F841207B68012259
:1028BC0083F842207B68012283F843207B68012245
:1028CC0083F844207B68012283F845207B68012231
:1028DC0083F83D20002318460837BD4680BD000014
:1028EC0080B485B000AF78607B6893F83D30DBB284
:1028FC00012B01D0012335E07B68022283F83D20B7
:10290C007B681B68DA687B681B6842F00102DA603E
:10291C007B681B68164A934209D07B681B68B3F12D
:10292C00804F04D07B681B68124A934211D17B689C
:10293C001B689B6803F00703FB60FB68062B10D039
:10294C007B681B681A687B681B6842F001021A607E
:10295C0007E07B681B681A687B681B6842F0010201
:10296C001A60002318461437BD4680BC704700BF60
:10297C00002C01400004004080B584B000AF7860AA
:10298C007B681B68DB68FB607B681B681B69BB6032
:10299C00BB6803F00203002B20D0FB6803F002039A
:1029AC00002B1BD07B681B686FF002021A617B68DE
:1029BC0001221A777B681B689B6903F00303002BC9
:1029CC0003D0786800F098F905E0786800F08BF98E
:1029DC00786800F09AF97B6800221A77BB6803F0DC
:1029EC000403002B20D0FB6803F00403002B1BD046
:1029FC007B681B686FF004021A617B6802221A77ED
:102A0C007B681B689B6903F44073002B03D07868C8
:102A1C0000F072F905E0786800F065F9786800F06C
:102A2C0074F97B6800221A77BB6803F00803002B4B
:102A3C0020D0FB6803F00803002B1BD07B681B68BD
:102A4C006FF008021A617B6804221A777B681B6896
:102A5C00DB6903F00303002B03D0786800F04CF91A
:102A6C0005E0786800F03FF9786800F04EF97B6873
:102A7C0000221A77BB6803F01003002B20D0FB68F0
:102A8C0003F01003002B1BD07B681B686FF0100247
:102A9C001A617B6808221A777B681B68DB6903F470
:102AAC004073002B03D0786800F026F905E07868B5
:102ABC0000F019F9786800F028F97B6800221A7781
:102ACC00BB6803F00103002B0CD0FB6803F001037F
:102ADC00002B07D07B681B686FF001021A617868C5
:102AEC00FEF76CFDBB6803F08003002B0CD0FB6879
:102AFC0003F08003002B07D07B681B686FF080020B
:102B0C001A61786800F06FFABB6803F04003002B81
:102B1C000CD0FB6803F04003002B07D07B681B68CC
:102B2C006FF040021A61786800F0F8F8BB6803F0A7
:102B3C002003002B0CD0FB6803F02003002B07D0E4
:102B4C007B681B686FF020021A61786800F042FA0B
:102B5C0000BF1037BD4680BD80B584B000AF786033
:102B6C0039600023FB737B6893F83C30012B01D157
:102B7C000223B4E07B68012283F83C207B680222AC
:102B8C0083F83D207B681B689B68BB60BB6823F0A7
:102B9C007703BB60BB6823F47F43BB607B681B6817
:102BAC00BA689A603B681B68B3F5005F3ED0B3F51A
:102BBC00005F00F28780B3F5805F00F08680B3F58C
:102BCC00805F7FD8702B1AD0702B7BD8602B50D0A5
:102BDC00602B77D8502B3CD0502B73D8402B58D02F
:102BEC00402B6FD8302B64D0302B6BD8202B60D07F
:102BFC00202B67D8002B5CD0102B5AD062E07B685E
:102C0C0018683B6899683B685A683B68DB6800F059
:102C1C006AF97B681B689B68BB60BB6843F07703F1
:102C2C00BB607B681B68BA689A604FE07B68186869
:102C3C003B6899683B685A683B68DB6800F053F95D
:102C4C007B681B689A687B681B6842F480429A60B8
:102C5C003CE07B6818683B6859683B68DB681A463F
:102C6C0000F0CAF87B681B685021184600F021F967
:102C7C002CE07B6818683B6859683B68DB681A462F
:102C8C0000F0E8F87B681B686021184600F011F929
:102C9C001CE07B6818683B6859683B68DB681A461F
:102CAC0000F0AAF87B681B684021184600F001F977
:102CBC000CE07B681A683B681B681946104600F0EC
:102CCC00F8F803E00123FB7300E000BF7B680122EE
:102CDC0083F83D207B68002283F83C20FB7B184660
:102CEC001037BD4680BD80B483B000AF786000BFA4
:102CFC000C37BD4680BC704780B483B000AF7860A1
:102D0C0000BF0C37BD4680BC704780B483B000AFA9
:102D1C00786000BF0C37BD4680BC704780B483B070
:102D2C0000AF786000BF0C37BD4680BC7047000018
:102D3C0080B485B000AF786039607B681B68FB603D
:102D4C007B682B4A934207D07B68B3F1804F03D04A
:102D5C007B68284A934208D1FB6823F07003FB6020
:102D6C003B685B68FA681343FB607B68204A9342BC
:102D7C0007D07B68B3F1804F03D07B681D4A934228
:102D8C0008D1FB6823F44073FB603B68DB68FA688E
:102D9C001343FB60FB6823F080023B685B691343C1
:102DAC00FB607B68FA681A603B689A687B68DA6239
:102DBC003B681A687B689A627B680D4A934203D120
:102DCC003B681A697B681A637B6801225A617B68CD
:102DDC001B6903F00103002B05D07B681B6923F0F2
:102DEC0001027B681A6100BF1437BD4680BC704776
:102DFC00002C01400004004080B487B000AFF860A4
:102E0C00B9607A60FB681B6A7B61FB681B6A23F004
:102E1C000102FB681A62FB689B693B613B6923F00A
:102E2C00F0033B617B681B013A6913433B617B698F
:102E3C0023F00A037B617A69BB6813437B61FB68EF
:102E4C003A699A61FB687A691A6200BF1C37BD4601
:102E5C0080BC704780B487B000AFF860B9607A600E
:102E6C00FB681B6A7B61FB681B6A23F01002FB6822
:102E7C001A62FB689B693B613B6923F470433B61BD
:102E8C007B681B033A6913433B617B6923F0A00306
:102E9C007B61BB681B017A6913437B61FB683A69F0
:102EAC009A61FB687A691A6200BF1C37BD4680BC08
:102EBC00704780B485B000AF786039607B689B68E0
:102ECC00FB60FB6823F07003FB603A68FB681343FC
:102EDC0043F00703FB607B68FA689A6000BF143705
:102EEC00BD4680BC704780B487B000AFF860B96055
:102EFC007A603B60FB689B687B617B6923F47F4352
:102F0C007B613B681A027B681A43BB6813437A697E
:102F1C0013437B61FB687A699A6000BF1C37BD461E
:102F2C0080BC704780B485B000AF786039607B6836
:102F3C0093F83C30012B01D1022341E07B68012244
:102F4C0083F83C207B68022283F83D207B681B6859
:102F5C005B68FB607B681B689B68BB60FB6823F04D
:102F6C007003FB603B681B68FA681343FB607B686B
:102F7C001B68FA685A607B681B68144A934209D034
:102F8C007B681B68B3F1804F04D07B681B68104AC8
:102F9C0093420CD1BB6823F08003BB603B685B6839
:102FAC00BA681343BB607B681B68BA689A607B681D
:102FBC00012283F83D207B68002283F83C2000230B
:102FCC0018461437BD4680BC704700BF002C01402A
:102FDC000004004080B483B000AF786000BF0C37B1
:102FEC00BD4680BC704780B483B000AF786000BF32
:102FFC000C37BD4680BC704770B500260C4D0D4C8F
:10300C00641BA410A64209D100F022F800260A4D38
:10301C000A4C641BA410A64205D170BD55F8043BA4
:10302C0098470136EEE755F8043B98470136F2E72E
:10303C009830000898300008983000089C30000840
:10304C0003460244934200D1704703F8011BF9E791
:10305C00F8B500BFF8BC08BC9E467047F8B500BF79
:08306C00F8BC08BC9E46704749
:103074000000000000000000010203040607080924
:1030840002030405060708090A0B0C0D0E0F1010A5
:043094000102000035
:0430980031010008FA
:04309C000D0100081A
:1030A000010000000100000001000000010000001C
:1030B000C800000001000000010000000100000045
:1030C00001000000C8000000010000000100000035
:1030D0000100000001000000C80000000100000025
:1030E00005000000030000000200000001000000D5
:0C30F00000127A00100000000100000037
:04000005080019E5F1
:00000001FF
