:020000040800F2
:1000000000280020E9140008791400087F14000873
:10001000851400088B1400089114000800000000EB
:10002000000000000000000000000000971400081D
:10003000A314000800000000AF140008BB1400085F
:100040003115000831150008311500083115000878
:100050003115000831150008311500083115000868
:100060003115000831150008311500083115000858
:100070003115000831150008311500083115000848
:100080003115000831150008311500083115000838
:100090003115000831150008311500083115000828
:1000A0003115000831150008311500083115000818
:1000B000C9140008311500080000000031150008BF
:1000C0003115000800000000000000003115000894
:1000D0000000000031150008311500080000000084
:1000E0003115000831150008311500080000000026
:1000F0000000000000000000000000000000000000
:0C01000000000000000000005FF808F1A3
:10010C0010B5054C237833B9044B13B10448AFF345
:10011C0000800123237010BD580000200000000057
:10012C00302B000808B5034B1BB103490348AFF350
:10013C00008008BD000000005C000020302B00088F
:10014C0080B400AF064B1B68012B04D1044B00227A
:10015C001A60012300E000231846BD4680BC70479E
:10016C007400002080B400AF034B01221A6000BF62
:10017C00BD4680BC704700BF7400002080B500AF46
:10018C001F4B1B681F4A13601F4B1B681C4A1360D4
:10019C004FF400511D4801F0B1FC03461A461A4BAE
:1001AC001A60184B1A68164B1B689A4225D1144BCF
:1001BC001A68154B1B689A421FD1154B1A68124BC3
:1001CC001B689A420DD0104B1B68114A13600E4BE2
:1001DC001B68002B11D1FFF7C5FF0E4BC8221A600C
:1001EC000BE00C4B1B68013B0A4A1360094B1B6864
:1001FC00002B02D1064B01221A6000BF80BD00BF4C
:10020C00040000200000002008000020000C014029
:10021C000C0000201000002080B500AF1F4B1B68A5
:10022C001F4A13601F4B1B681C4A13604FF480411C
:10023C001D4801F063FC03461A461A4B1A60184B12
:10024C001A68164B1B689A4226D1144B1A68154B28
:10025C001B689A4220D1154B1A68124B1B689A42A4
:10026C000ED0104B1B68114A13600E4B1B68002BF1
:10027C0012D10F4B01221A600E4BC8221A600BE0F0
:10028C000C4B1B68013B0B4A13600A4B1B68002B81
:10029C0002D1064B01221A6000BF80BD180000205D
:1002AC00140000201C000020000C01402000002045
:1002BC00780000202400002080B500AF1F4B1B6885
:1002CC001F4A13601F4B1B681C4A13604FF40041FC
:1002DC001D4801F013FC03461A461A4B1A60184BC2
:1002EC001A68164B1B689A4226D1144B1A68154B88
:1002FC001B689A4220D1154B1A68124B1B689A4204
:10030C000ED0104B1B68114A13600E4B1B68002B50
:10031C0012D10F4B01221A600E4BC8221A600BE04F
:10032C000C4B1B68013B0B4A13600A4B1B68002BE0
:10033C0002D1064B01221A6000BF80BD2C000020A8
:10034C002800002030000020000C01403400002068
:10035C007C0000203800002080B500AF814B1B686A
:10036C00013B042B00F25C8101A252F823F000BF88
:10037C0091030008B503000847040008E1040008D5
:10038C009505000800F08CF900F066F9754B022217
:10039C001A60754B64221A60744B1B68642202FB52
:1003AC0003F3734A136044E100F098F900F0EEF99E
:1003BC006D4B1B68002B04DD6B4B1B68013B6A4AC1
:1003CC001360694B1B68002B0CD16A4B1B68013BFB
:1003DC00684A1360684B1B68013B674A1360624BA9
:1003EC0064221A60624B1B68002B04DD604B1B6897
:1003FC00013B5F4A13605E4B1B68002B0DD1594BC0
:10040C0003221A60594B1B685B4A13605B4B1B68D9
:10041C00642202FB03F3564A1360FFF791FE034676
:10042C00012B40F0FF8000F03BF94E4B0C221A6080
:10043C004F4B4FF496721A60F4E000F04FF900F055
:10044C00BBF9494B1B68002B04DD474B1B68013B78
:10045C00454A1360444B1B68002B0CD1454B1B6861
:10046C00013B444A1360464B1B68013B444A1360F2
:10047C003D4B64221A603E4B1B68002B04DD3C4B49
:10048C001B68013B3A4A1360394B1B68002B11D196
:10049C00344B04221A60394B1B68394A1360394BB0
:1004AC001B68344A1360314B1B68642202FB03F354
:1004BC002F4A1360FFF744FE0346012B40F0B48033
:1004CC0000F0EEF8274B0C221A60294B4FF47A728D
:1004DC001A60A9E000F018F900F042F9224B1B68F1
:1004EC00002B04DD204B1B68013B1F4A13601E4B85
:1004FC001B68002B0CD11F4B1B68013B1D4A136062
:10050C001D4B1B68013B1C4A1360174B64221A607D
:10051C00174B1B68002B04DD154B1B68013B144A61
:10052C001360134B1B68002B0DD10E4B05221A6068
:10053C000E4B1B68104A1360104B1B68642202FBA5
:10054C0003F30B4A1360FFF7FBFD0346012B6DD140
:10055C0000F0A6F8034B0C221A60054B4FF47A728C
:10056C001A6063E03C00002084000020440000205E
:10057C008000002090000020940000204800002003
:10058C00980000204000002000F0D4F800F0E8F8BB
:10059C00294B1B68002B04DD274B1B68013B264AAB
:1005AC001360254B1B68002B0CD1244B1B68013BA3
:1005BC00224A1360224B1B68013B214A13601E4BDD
:1005CC0064221A601F4B1B68002B04DD1D4B1B683B
:1005DC00013B1C4A13601B4B1B68002B11D11A4B9F
:1005EC0002221A60194B1B68144A1360184B1B68C3
:1005FC00134A1360174B1B68642202FB03F3114A66
:10060C001360FFF79DFD0346012B11D100F048F854
:10061C000D4B02221A600B4B4FF47A721A6007E0F2
:10062C0000BF06E000BF04E000BF02E000BF00E036
:10063C0000BF00BF80BD00BF8400002090000020E0
:10064C0098000020800000203C000020400000208A
:10065C00480000204400002080B500AF002201219A
:10066C000E4801F062FA002202210C4801F05DFAFA
:10067C0000220421094801F058FA002208210748F9
:10068C0001F053FA00221021044801F04EFA002226
:10069C002021024801F049FA00BF80BD000C014046
:1006AC0080B400AF074B1B68074A1360074B1B68ED
:1006BC00074A1360074B1B68074A136000BFBD460F
:1006CC0080BC7047400000209000002044000020B7
:1006DC0094000020480000209800002080B500AF56
:1006EC0001220121074801F020FA002202210548CD
:1006FC0001F01BFA00220421024801F016FA00BF97
:10070C0080BD00BF000C014080B500AF002201216C
:10071C00074801F00AFA01220221054801F005FA06
:10072C0000220421024801F000FA00BF80BD00BF86
:10073C00000C014080B500AF00220121074801F0F8
:10074C00F4F900220221054801F0EFF901220421FD
:10075C00024801F0EAF900BF80BD00BF000C014067
:10076C0080B500AF01220821074801F0DEF9002214
:10077C001021054801F0D9F900222021024801F08E
:10078C00D4F900BF80BD00BF000C014080B500AFA4
:10079C0000220821074801F0C8F901221021054860
:1007AC0001F0C3F900222021024801F0BEF900BF7C
:1007BC0080BD00BF000C014080B500AF00220821B5
:1007CC00074801F0B2F900221021054801F0ADF9FB
:1007DC0001222021024801F0A8F900BF80BD00BF12
:1007EC00000C014080B400AF1E4B1B68023B0C2B6D
:1007FC0031D801A252F823F0390800083F0800084C
:10080C00450800084B080008630800086308000846
:10081C006308000863080008630800086308000800
:10082C00510800085D080008570800080E4B1B68AB
:10083C0013E00D4B1B6810E00C4B1B680DE00C4BD0
:10084C001B680AE0084B1B6807E0084B1B6804E0B8
:10085C00074B1B6801E000BF00231846BD4680BC57
:10086C00704700BF3C000020900000209400002046
:10087C009800002080B400AF1E4B1B68023B0C2B71
:10088C0031D801A252F823F0C9080008CF0800089B
:10089C00D5080008DB080008F3080008F308000876
:1008AC00F3080008F3080008F3080008F308000830
:1008BC00E1080008ED080008E70800080E4B1B686B
:1008CC0013E00E4B1B6810E00D4B1B680DE00C4B3E
:1008DC001B680AE00A4B1B6807E0074B1B6804E027
:1008EC00064B1B6801E000BF00231846BD4680BCC8
:1008FC00704700BF3C0000209400002098000020AE
:10090C009000002080B582B000AF78607B68092B26
:10091C0000F2C88101A252F823F000BF510900086F
:10092C00A7090008FD090008530A0008A90A0008D5
:10093C00FF0A0008550B0008AB0B0008010C00085F
:10094C00570C000800224FF40071D54801F0EDF867
:10095C0000224FF48061D24801F0E7F800224FF4F6
:10096C000061CF4801F0E1F800224FF48051CC48EF
:10097C0001F0DBF800224FF40051C94801F0D5F822
:10098C0000224FF48041C64801F0CFF801224FF409
:10099C000041C34801F0C9F885E101224FF4007110
:1009AC00BF4801F0C2F800224FF48061BC4801F04E
:1009BC00BCF800224FF40061B94801F0B6F80122EE
:1009CC004FF48051B64801F0B0F801224FF40051B9
:1009DC00B34801F0AAF801224FF48041B04801F06D
:1009EC00A4F801224FF40041AD4801F09EF85AE101
:1009FC0000224FF40071AA4801F097F800224FF43E
:100A0C008061A74801F091F801224FF40061A448DD
:100A1C0001F08BF800224FF48051A14801F085F8C9
:100A2C0000224FF400519E4801F07FF801224FF450
:100A3C0080419B4801F079F800224FF4004198481E
:100A4C0001F073F82FE100224FF40071944801F08B
:100A5C006CF800224FF48061914801F066F8002296
:100A6C004FF400618E4801F060F800224FF4805181
:100A7C008B4801F05AF801224FF40051884801F0DC
:100A8C0054F801224FF48041854801F04EF80022C1
:100A9C004FF40041824801F048F804E101224FF480
:100AAC0000717F4801F041F800224FF480617C48CE
:100ABC0001F03BF800224FF40061794801F035F861
:100ACC0001224FF48051764801F02FF801224FF4A7
:100ADC000051734801F029F800224FF4804170480E
:100AEC0001F023F800224FF400416D4801F01DF88D
:100AFC00D9E000224FF40071694801F016F8012288
:100B0C004FF48061664801F010F800224FF4006148
:100B1C00634801F00AF800224FF48051604801F05C
:100B2C0004F801224FF400515D4800F0FEFF002252
:100B3C004FF480415A4800F0F8FF00224FF4004176
:100B4C00574800F0F2FFAEE000224FF40071544819
:100B5C0000F0EBFF01224FF48061514800F0E5FFFB
:100B6C0000224FF400614E4800F0DFFF00224FF4EA
:100B7C0080514B4800F0D9FF00224FF400514848F7
:100B8C0000F0D3FF00224FF48041454800F0CDFF28
:100B9C0000224FF40041424800F0C7FF83E00022DE
:100BAC004FF400713E4800F0C0FF00224FF480610A
:100BBC003B4800F0BAFF00224FF40061384800F0C7
:100BCC00B4FF01224FF48051354800F0AEFF0122F2
:100BDC004FF40051324800F0A8FF01224FF480413D
:100BEC002F4800F0A2FF01224FF400412C4800F0E6
:100BFC009CFF58E000224FF40071294800F095FF4B
:100C0C0000224FF48061264800F08FFF00224FF441
:100C1C000061234800F089FF00224FF480512048E6
:100C2C0000F083FF00224FF400511D4800F07DFFBF
:100C3C0000224FF480411A4800F077FF00224FF455
:100C4C000041174800F071FF2DE000224FF40071B5
:100C5C00134800F06AFF00224FF48061104800F046
:100C6C0064FF00224FF400610D4800F05EFF00228B
:100C7C004FF480510A4800F058FF01224FF4005104
:100C8C00074800F052FF00224FF48041044800F066
:100C9C004CFF00224FF40041014800F046FF02E0F7
:100CAC000008014000BF00BF0837BD4680BD00BF33
:100CBC0080B582B000AF78607B685A4203F00303C2
:100CCC0002F0030258BF53427B607B68032B00F297
:100CDC00998001A252F823F0F50C0008370D00089A
:100CEC00830D0008C50D000800220221474800F0C2
:100CFC001CFF01220421454800F017FF01220821A6
:100D0C00424800F012FF01221021404800F00DFF74
:100D1C00FFF768FD03463E4A82FB03129210DB1775
:100D2C00D31A1846FFF7EEFD6CE00122022137487A
:100D3C0000F0FBFE00220421344800F0F6FE0122F4
:100D4C000821324800F0F1FE012210212F4800F05A
:100D5C00ECFEFFF747FD01462D4B83FB01239A1058
:100D6C00CB17D21A13469B0013445B00CA1A1046C9
:100D7C00FFF7C8FD46E001220221244800F0D5FE11
:100D8C0001220421214800F0D0FE002208211F4836
:100D9C0000F0CBFE012210211C4800F0C6FEFFF72C
:100DAC0069FD03461A4A82FB03129210DB17D31A11
:100DBC001846FFF7A7FD25E001220221134800F099
:100DCC00B4FE01220421114800F0AFFE01220821DB
:100DDC000E4800F0AAFE002210210C4800F0A5FEDF
:100DEC00FFF748FD01460A4B83FB01239A10CB17F2
:100DFC00D21A13469B0013445B00CA1A1046FFF725
:100E0C0081FD00BF00BF0837BD4680BD0008014012
:100E1C006766666680B500AF0A4B1B68012B0ED166
:100E2C00094B1B68032B02DD074B00221A60064B93
:100E3C001B685A1C04490A601846FFF739FF00BFAB
:100E4C0080BD00BF8C0000208800002080B500AF62
:100E5C0000F06AFB00F030F800F0B6F800F068F82B
:100E6C000F4801F0A7FA0A2200210E4800F0F2F90F
:100E7C000A2200210C4800F0EDF90A2200210B484F
:100E8C0000F0E8F9FA220021094800F0E3F96422A5
:100E9C000021084800F0DEF900F036FAFCE700BF4C
:100EAC009C0000208901000825020008C5020008EA
:100EBC00210E00086503000880B590B000AF07F163
:100ECC00180328220021184601F024FE3B1D0022A5
:100EDC001A605A609A60DA601A610223BB610123BE
:100EEC00BB621023FB6200237B6307F118031846D7
:100EFC0000F034FE0346002B01D000F0EDF80F2378
:100F0C007B600023BB600023FB6000233B6100235C
:100F1C007B613B1D0021184601F0A0F80346002B15
:100F2C0001D000F0D9F800BF4037BD4680BD0000AD
:100F3C0080B586B000AF07F1080300221A605A6032
:100F4C009A60DA603B4600221A605A601D4B4FF0E3
:100F5C0080421A601B4B41F63F725A60194B0022BB
:100F6C009A60184B0922DA60164B00221A61154B55
:100F7C0000229A61134801F0CDF90346002B01D0F1
:100F8C0000F0AAF84FF48053BB6007F10803194630
:100F9C000C4801F04BFB0346002B01D000F09CF8F1
:100FAC0000233B6000237B603B461946054801F05B
:100FBC0023FD0346002B01D000F08EF800BF18373C
:100FCC00BD4680BD9C00002080B588B000AF07F105
:100FDC00100300221A605A609A60DA60354B9B69E4
:100FEC00344A43F010039361324B9B6903F01003B6
:100FFC00FB60FB682F4B9B692E4A43F00403936103
:10100C002C4B9B6903F00403BB60BB68294B9B69A9
:10101C00284A43F008039361264B9B6903F00803AD
:10102C007B607B6800224FF6FE71234800F07DFD4B
:10103C00002241F6FF71214800F077FD4FF4005378
:10104C003B6100237B610123BB6107F1100319464F
:10105C001B4800F0D9FB4FF6FE733B6101237B610B
:10106C000023BB610223FB6107F1100319461248F0
:10107C0000F0CAFB41F6FF733B6101237B61002347
:10108C00BB610223FB6107F1100319460B4800F00A
:10109C00BBFB4FF460433B6100237B610123BB61CD
:1010AC0007F110031946054800F0AEFB00BF2037CE
:1010BC00BD4680BD0010024000080140000C0140FC
:1010CC000010014080B582B000AF786000F050F89D
:1010DC0000BF0837BD4680BD80B400AF72B600BFFC
:1010EC00FEE7000080B485B000AF0346FB7100231F
:1010FC00FB73FA791D4913469B0013449B000B4468
:10110C001B68002B02D10123FB7301E00023FB734E
:10111C00FA79164913469B0013449B000B4400229A
:10112C001A60FA79114913469B0013449B000B4437
:10113C00043300221A60FA790C4913469B001344BD
:10114C009B000B44083300221A60FA7907491346B6
:10115C009B0013449B000B440C3300221A70FB7B46
:10116C0018461437BD4680BC704700BFE400002011
:10117C0080B483B000AF0023FB715FE0FA7934498F
:10118C0013469B0013449B000B441B68002B52D04E
:10119C00FA792F4913469B0013449B000B440433EC
:1011AC001B68FA79591E2A4813469B0013449B006E
:1011BC00034404331960FA79254913469B00134400
:1011CC009B000B4404331B68002B34DCFA79204958
:1011DC0013469B0013449B000B440C3393F90030D3
:1011EC00DBB20133DBB2FA7958B2194913469B00D2
:1011FC0013449B000B440C3302461A70FA791449C1
:10120C0013469B0013449B000B4408331B68002BB4
:10121C0011D0F979FA790E480B469B000B449B00D0
:10122C000344083319680A4813469B0013449B0077
:10123C00034404331960FB790133FB71FB79092BEF
:10124C009CD900BF00BF0C37BD4680BC704700BFA7
:10125C00E400002080B487B000AFF860B9607A6019
:10126C000023FB7502E0FB7D0133FB75FA7D2449FD
:10127C0013469B0013449B000B441B68002B02D0AD
:10128C00FB7D092BEFD9FB7D0A2B01D10A2331E021
:10129C00FA7D1B4913469B0013449B000B44FA68D0
:1012AC001A60BB68174AA2FB0323DB08FA7D1846B9
:1012BC00134913469B0013449B000B4404331860E2
:1012CC007B68104AA2FB0323DB08FA7D18460C4905
:1012DC0013469B0013449B000B4408331860FA7DA3
:1012EC00074913469B0013449B000B440C3300220C
:1012FC001A70FB7D18461C37BD4680BC704700BF7A
:10130C00E4000020CDCCCCCC80B582B000AF002363
:10131C00FB714AE0FA79294913469B0013449B0060
:10132C000B441B68002B3CD0FA79244913469B00D4
:10133C0013449B000B440C3393F90030002B31DD2C
:10134C00FA791E4913469B0013449B000B441B68FF
:10135C009847FA79194913469B0013449B000B4498
:10136C000C3393F90030DBB2013BDBB2FA7958B2A3
:10137C00124913469B0013449B000B440C3302464A
:10138C001A70FA790D4913469B0013449B000B44C9
:10139C0008331B68002B05D1FB791846FFF7A2FE1A
:1013AC0000E000BFFB790133FB71FB79092BB1D94C
:1013BC0000BF00BF0837BD4680BD00BFE400002061
:1013CC0080B485B000AF154B9B69144A43F0010300
:1013DC009361124B9B6903F00103BB60BB680F4B1D
:1013EC00DB690E4A43F08053D3610C4BDB6903F08D
:1013FC0080537B607B680A4B5B68FB60FB6823F067
:10140C00E063FB60FB6843F08063FB60044AFB68AD
:10141C00536000BF1437BD4680BC704700100240BB
:10142C000000014080B584B000AF78607B681B6819
:10143C00B3F1804F13D10C4BDB690B4A43F0010322
:10144C00D361094BDB6903F00103FB60FB680022ED
:10145C0000211C2000F0A1F91C2000F0BAF900BFFB
:10146C001037BD4680BD00BF0010024080B400AFF5
:10147C00FEE780B400AFFEE780B400AFFEE780B4B7
:10148C0000AFFEE780B400AFFEE780B400AF00BF52
:10149C00BD4680BC704780B400AF00BFBD4680BC69
:1014AC00704780B400AF00BFBD4680BC704780B5AC
:1014BC0000AF00F07FF800BF80BD000080B500AF2A
:1014CC00024800F0C3FF00BF80BD00BF9C0000209D
:1014DC0080B400AF00BFBD4680BC7047FFF7F8FF7B
:1014EC000B480C490C4A002302E0D458C450043376
:1014FC00C4188C42F9D3094A094C002301E013604B
:10150C000432A242FBD301F0E1FAFFF79FFC7047D3
:10151C000000002058000020742B00085800002008
:10152C00B0010020FEE7000080B500AF084B1B683F
:10153C00074A43F010031360032000F023F90F2037
:10154C0000F008F8FFF73CFF0023184680BD00BFF1
:10155C000020024080B582B000AF7860124B1A6850
:10156C00124B1B7819464FF47A73B3FBF1F3B2FBB1
:10157C00F3F3184600F03BF90346002B01D001238E
:10158C000EE07B680F2B0AD8002279684FF0FF30F1
:10159C0000F003F9064A7B681360002300E0012386
:1015AC0018460837BD4680BD4C0000205400002072
:1015BC005000002080B400AF054B1B781A46054B39
:1015CC001B681344034A136000BFBD4680BC7047C0
:1015DC0054000020AC01002080B400AF024B1B680B
:1015EC001846BD4680BC7047AC01002080B485B065
:1015FC0000AF78607B6803F00703FB600C4BDB6883
:10160C00BB60BA684FF6FF031340BB60FB681A025D
:10161C00BB68134343F0BF6343F40033BB60044A1D
:10162C00BB68D36000BF1437BD4680BC704700BF99
:10163C0000ED00E080B400AF044BDB681B0A03F044
:10164C0007031846BD4680BC704700BF00ED00E0A4
:10165C0080B483B000AF0346FB7197F90730002BC1
:10166C000BDBFB7903F01F02064997F907305B0986
:10167C00012000FA02F241F8232000BF0C37BD46CE
:10168C0080BC704700E100E080B483B000AF03463B
:10169C003960FB7197F90730002B0ADB3B68DAB233
:1016AC000C4997F907301201D2B20B4483F800238E
:1016BC000AE03B68DAB20849FB7903F00F03043BFC
:1016CC001201D2B20B441A7600BF0C37BD4680BC57
:1016DC00704700BF00E100E000ED00E080B489B08D
:1016EC0000AFF860B9607A60FB6803F00703FB6138
:1016FC00FB69C3F10703042B28BF0423BB61FB69FF
:10170C000433062B02D9FB69033B00E000237B6109
:10171C004FF0FF32BB6902FA03F3DA43BB681A409D
:10172C007B699A404FF0FF317B6901FA03F3D9438F
:10173C007B680B40134318462437BD4680BC70476A
:10174C0080B582B000AF78607B68013BB3F1807FDD
:10175C0001D301230FE00A4A7B68013B53600F2140
:10176C004FF0FF30FFF790FF054B00229A60044BBF
:10177C0007221A60002318460837BD4680BD00BFFB
:10178C0010E000E080B582B000AF78607868FFF7B9
:10179C002DFF00BF0837BD4680BD80B586B000AFB9
:1017AC000346B9607A60FB7300237B61FFF742FF4D
:1017BC0078617A68B9687869FFF790FF024697F903
:1017CC000F3011461846FFF75FFF00BF1837BD46B4
:1017DC0080BD80B582B000AF0346FB7197F907302E
:1017EC001846FFF735FF00BF0837BD4680BD80B5F2
:1017FC0082B000AF78607868FFF7A2FF0346184606
:10180C000837BD4680BD000080B48BB000AF786057
:10181C00396000237B6200233B6248E101227B6A32
:10182C0002FA03F3FB613B681B68FA691340BB6166
:10183C00BA69FB699A4240F037813B685B68A34AFE
:10184C0093425ED0A14A934275D8A14A934258D094
:10185C009F4A93426FD89F4A934252D09D4A9342DB
:10186C0069D89D4A93424CD09B4A934263D89B4A79
:10187C00934246D0994A93425DD8122B2AD8122B08
:10188C0059D801A252F823F00F190008E9180008E2
:10189C00FB1800083D1900084319000843190008FB
:1018AC00431900084319000843190008431900089C
:1018BC00431900084319000843190008431900088C
:1018CC00431900084319000843190008F1180008CF
:1018DC0005190008824A934213D02CE03B68DB6860
:1018EC003B6229E03B68DB6804333B6224E03B68E5
:1018FC00DB6808333B621FE03B68DB680C333B6200
:10190C001AE03B689B68002B02D104233B6213E076
:10191C003B689B68012B05D108233B627B68FA6905
:10192C001A6109E008233B627B68FA695A6103E09B
:10193C0000233B6200E000BFBB69FF2B01D87B6832
:10194C0001E07B6804337B61BB69FF2B02D87B6AA7
:10195C009B0002E07B6A083B9B003B617B691A6839
:10196C000F213B6901FA03F3DB431A40396A3B69E7
:10197C0001FA03F31A437B691A603B685B6803F056
:10198C008053002B00F09080564B9B69554A43F0D6
:10199C0001039361534B9B6903F00103BB60BB686C
:1019AC00514A7B6A9B08023352F82330FB607B6AF6
:1019BC0003F003039B000F2202FA03F3DB43FA68E4
:1019CC001340FB607B68494A93420DD07B68484AC0
:1019DC00934207D07B68474A934201D1022304E02B
:1019EC00032302E0012300E000237A6A02F00302E1
:1019FC0092009340FA681343FB603B497B6A9B0857
:101A0C000233FA6841F823203B685B6803F48013C7
:101A1C00002B06D0384B9A683749BB6913438B604F
:101A2C0006E0354B9A68BB69DB43334913408B6046
:101A3C003B685B6803F40013002B06D02E4BDA686E
:101A4C002D49BB691343CB6006E02B4BDA68BB69AD
:101A5C00DB4329491340CB603B685B6803F40033DC
:101A6C00002B06D0244B5A682349BB6913434B60A7
:101A7C0006E0214B5A68BB69DB431F4913404B609E
:101A8C003B685B6803F48033002B06D01A4B1A6852
:101A9C001949BB6913430B6006E0174B1A68BB6905
:101AAC00DB43154913400B607B6A01337B623B6857
:101ABC001A687B6A22FA03F3002B7FF4AFAE00BFE7
:101ACC0000BF2C37BD4680BC704700BF00003210F1
:101ADC000000311000002210000021100000121034
:101AEC0000001110001002400000014000080140ED
:101AFC00000C0140001001400004014080B485B08E
:101B0C0000AF78600B467B807B689A687B881340BB
:101B1C00002B02D00123FB7301E00023FB73FB7B42
:101B2C0018461437BD4680BC704780B483B000AFF4
:101B3C0078600B467B8013467B707B78002B03D040
:101B4C007A887B681A6103E07B881A047B681A61C7
:101B5C0000BF0C37BD4680BC7047000080B586B016
:101B6C0000AF78607B68002B01D101236CE27B68AD
:101B7C001B6803F00103002B00F08780924B5B681D
:101B8C0003F00C03042B0CD08F4B5B6803F00C039D
:101B9C00082B12D18C4B5B6803F48033B3F5803F78
:101BAC000BD1894B1B6803F40033002B6CD07B6882
:101BBC005B68002B68D1012346E27B685B68B3F558
:101BCC00803F06D1804B1B687F4A43F480331360FF
:101BDC002EE07B685B68002B0CD17B4B1B687A4A30
:101BEC0023F480331360784B1B68774A23F48023EB
:101BFC0013601DE07B685B68B3F5A02F0CD1724BB2
:101C0C001B68714A43F4802313606F4B1B686E4A48
:101C1C0043F4803313600BE06B4B1B686A4A23F46C
:101C2C0080331360684B1B68674A23F4802313606E
:101C3C007B685B68002B13D0FFF7CEFC386108E0A3
:101C4C00FFF7CAFC02463B69D31A642B01D9032364
:101C5C00FAE15D4B1B6803F40033002BF0D014E069
:101C6C00FFF7BAFC386108E0FFF7B6FC02463B69A7
:101C7C00D31A642B01D90323E6E1534B1B6803F4FD
:101C8C000033002BF0D100E000BF7B681B6803F031
:101C9C000203002B63D04C4B5B6803F00C03002B4E
:101CAC000BD0494B5B6803F00C03082B1CD1464B43
:101CBC005B6803F48033002B16D1434B1B6803F095
:101CCC000203002B05D07B681B69012B01D001237B
:101CDC00BAE13D4B1B6823F0F8027B685B69DB00C3
:101CEC00394913430B603AE07B681B69002B20D009
:101CFC00364B01221A60FFF76FFC386108E0FFF7E2
:101D0C006BFC02463B69D31A022B01D903239BE1DE
:101D1C002D4B1B6803F00203002BF0D02A4B1B68E1
:101D2C0023F0F8027B685B69DB00274913430B60E7
:101D3C0015E0264B00221A60FFF74EFC386108E0D4
:101D4C00FFF74AFC02463B69D31A022B01D9032345
:101D5C007AE11D4B1B6803F00203002BF0D17B686A
:101D6C001B6803F00803002B3AD07B689B69002B9F
:101D7C0019D0174B01221A60FFF72EFC386108E0CE
:101D8C00FFF72AFC02463B69D31A022B01D9032325
:101D9C005AE10D4B5B6A03F00203002BF0D00120DB
:101DAC0000F09AFA1CE00A4B00221A60FFF714FCB0
:101DBC0038610FE0FFF710FC02463B69D31A022B87
:101DCC0008D9032340E100BF00100240000042424A
:101DDC00800442429E4B5B6A03F00203002BE9D164
:101DEC007B681B6803F00403002B00F0A680002323
:101DFC00FB75974BDB6903F08053002B0DD1944B93
:101E0C00DB69934A43F08053D361914BDB6903F058
:101E1C008053BB60BB680123FB758E4B1B6803F4BE
:101E2C008073002B18D18B4B1B688A4A43F4807348
:101E3C001360FFF7D1FB386108E0FFF7CDFB0246DA
:101E4C003B69D31A642B01D90323FDE0814B1B683A
:101E5C0003F48073002BF0D07B68DB68012B06D178
:101E6C007B4B1B6A7A4A43F0010313622DE07B68BB
:101E7C00DB68002B0CD1764B1B6A754A23F00103EF
:101E8C001362734B1B6A724A23F0040313621CE047
:101E9C007B68DB68052B0CD16D4B1B6A6C4A43F0DD
:101EAC00040313626A4B1B6A694A43F00103136211
:101EBC000BE0674B1B6A664A23F001031362644B09
:101ECC001B6A634A23F0040313627B68DB68002BF4
:101EDC0015D0FFF781FB38610AE0FFF77DFB024666
:101EEC003B69D31A41F28832934201D90323ABE008
:101EFC00574B1B6A03F00203002BEED014E0FFF7E4
:101F0C006BFB38610AE0FFF767FB02463B69D31AAB
:101F1C0041F28832934201D9032395E04C4B1B6A62
:101F2C0003F00203002BEED1FB7D012B05D1484BB6
:101F3C00DB69474A23F08053D3617B68DB69002B54
:101F4C0000F08180424B5B6803F00C03082B61D0DE
:101F5C007B68DB69022B46D13F4B00221A60FFF7EE
:101F6C003BFB386108E0FFF737FB02463B69D31AAD
:101F7C00022B01D9032367E0354B1B6803F0007378
:101F8C00002BF0D17B681B6AB3F5803F08D1304B36
:101F9C005B6823F400327B689B682D4913434B60CC
:101FAC002B4B5B6823F474127B68196A7B685B6A41
:101FBC000B43274913434B60274B01221A60FFF751
:101FCC000BFB386108E0FFF707FB02463B69D31AAD
:101FDC00022B01D9032337E01D4B1B6803F0007360
:101FEC00002BF0D02FE01C4B00221A60FFF7F4FA04
:101FFC00386108E0FFF7F0FA02463B69D31A022B6E
:10200C0001D9032320E0124B1B6803F00073002B53
:10201C00F0D118E07B68DB69012B01D1012313E0BF
:10202C000B4B5B68FB60FB6803F480327B681B6ABC
:10203C009A4206D1FB6803F470127B685B6A9A4281
:10204C0001D0012300E0002318461837BD4680BD9F
:10205C0000100240007000406000424280B584B025
:10206C0000AF786039607B68002B01D10123D0E090
:10207C006A4B1B6803F007033A689A4210D9674B06
:10208C001B6823F0070265493B6813430B60634BE5
:10209C001B6803F007033A689A4201D00123B8E0A9
:1020AC007B681B6803F00203002B20D07B681B6845
:1020BC0003F00403002B05D0594B5B68584A43F4DA
:1020CC00E06353607B681B6803F00803002B05D0AA
:1020DC00534B5B68524A43F460535360504B5B68FC
:1020EC0023F0F0027B689B684D4913434B607B687F
:1020FC001B6803F00103002B40D07B685B68012B4D
:10210C0007D1474B1B6803F40033002B15D1012377
:10211C007FE07B685B68022B07D1414B1B6803F0A7
:10212C000073002B09D1012373E03D4B1B6803F0B6
:10213C000203002B01D101236BE0394B5B6823F0C8
:10214C0003027B685B68364913434B60FFF744FA24
:10215C00F8600AE0FFF740FA0246FB68D31A41F236
:10216C008832934201D9032353E02D4B5B6803F073
:10217C000C027B685B689B009A42EBD1274B1B6877
:10218C0003F007033A689A4210D2244B1B6823F0E1
:10219C00070222493B6813430B60204B1B6803F07A
:1021AC0007033A689A4201D0012332E07B681B682E
:1021BC0003F00403002B08D0194B5B6823F4E06296
:1021CC007B68DB68164913434B607B681B6803F024
:1021DC000803002B09D0124B5B6823F460527B6818
:1021EC001B69DB000E4913434B6000F021F80246DB
:1021FC000B4B5B681B0903F00F030A49CB5C22FAFB
:10220C0003F3094A1360094B1B681846FFF7A2F940
:10221C00002318461037BD4680BD00BF0020024089
:10222C0000100240482B00084C00002050000020F9
:10223C0080B487B000AF0023FB600023BB60002399
:10224C007B6100237B6000233B611E4B5B68FB6062
:10225C00FB6803F00C03042B02D0082B03D027E0FF
:10226C00194B3B6127E0FB689B0C03F00F03174AEB
:10227C00D35C7B60FB6803F48033002B10D0114BD4
:10228C005B685B0C03F00103114AD35CBB607B6899
:10229C000D4A02FB03F2BB68B2FBF3F37B6104E073
:1022AC007B680C4A02FB03F37B617B693B6102E0B8
:1022BC00054B3B6100BF3B6918461C37BD4680BCD3
:1022CC00704700BF0010024000127A00582B000823
:1022DC00682B000800093D0080B485B000AF786021
:1022EC000A4B1B680A4AA2FB03235B0A7A6802FBAF
:1022FC0003F3FB6000BFFB685A1EFA60002BF9D198
:10230C0000BF00BF1437BD4680BC70474C00002096
:10231C00D34D621080B582B000AF78607B68002B23
:10232C0001D1012341E07B6893F83D30DBB2002BF7
:10233C0006D17B68002283F83C207868FFF772F89E
:10234C007B68022283F83D207B681A687B68043323
:10235C001946104600F056FA7B68012283F8462095
:10236C007B68012283F83E207B68012283F83F20A2
:10237C007B68012283F840207B68012283F841208E
:10238C007B68012283F842207B68012283F843207A
:10239C007B68012283F844207B68012283F8452066
:1023AC007B68012283F83D20002318460837BD4680
:1023BC0080BD000080B485B000AF78607B6893F876
:1023CC003D30DBB2012B01D0012335E07B680222CA
:1023DC0083F83D207B681B68DA687B681B6842F0D9
:1023EC000102DA607B681B68164A934209D07B684D
:1023FC001B68B3F1804F04D07B681B68124A934270
:10240C0011D17B681B689B6803F00703FB60FB68BA
:10241C00062B10D07B681B681A687B681B6842F01F
:10242C0001021A6007E07B681B681A687B681B68EE
:10243C0042F001021A60002318461437BD4680BCD6
:10244C00704700BF002C01400004004080B584B0F0
:10245C0000AF78607B681B68DB68FB607B681B687F
:10246C001B69BB60BB6803F00203002B20D0FB6828
:10247C0003F00203002B1BD07B681B686FF0020279
:10248C001A617B6801221A777B681B689B6903F0D1
:10249C000303002B03D0786800F098F905E0786806
:1024AC0000F08BF9786800F09AF97B6800221A77B3
:1024BC00BB6803F00403002B20D0FB6803F004037B
:1024CC00002B1BD07B681B686FF004021A617B68C1
:1024DC0002221A777B681B689B6903F44073002BFC
:1024EC0003D0786800F072F905E0786800F065F9BF
:1024FC00786800F074F97B6800221A77BB6803F0E7
:10250C000803002B20D0FB6803F00803002B1BD022
:10251C007B681B686FF008021A617B6804221A77CB
:10252C007B681B68DB6903F00303002B03D078681E
:10253C0000F04CF905E0786800F03FF9786800F09D
:10254C004EF97B6800221A77BB6803F01003002B4E
:10255C0020D0FB6803F01003002B1BD07B681B689A
:10256C006FF010021A617B6808221A777B681B686F
:10257C00DB6903F44073002B03D0786800F026F974
:10258C0005E0786800F019F9786800F028F97B68A4
:10259C0000221A77BB6803F00103002B0CD0FB68F8
:1025AC0003F00103002B07D07B681B686FF001025E
:1025BC001A617868FEF786FDBB6803F08003002B78
:1025CC000CD0FB6803F08003002B07D07B681B68E2
:1025DC006FF080021A61786800F06FFABB6803F044
:1025EC004003002B0CD0FB6803F04003002B07D0FA
:1025FC007B681B686FF040021A61786800F0F8F88D
:10260C00BB6803F02003002B0CD0FB6803F0200305
:10261C00002B07D07B681B686FF020021A6178686A
:10262C0000F042FA00BF1037BD4680BD80B584B0C3
:10263C0000AF786039600023FB737B6893F83C3003
:10264C00012B01D10223B4E07B68012283F83C20EA
:10265C007B68022283F83D207B681B689B68BB600B
:10266C00BB6823F07703BB60BB6823F47F43BB607C
:10267C007B681B68BA689A603B681B68B3F5005F9F
:10268C003ED0B3F5005F00F28780B3F5805F00F0B9
:10269C008680B3F5805F7FD8702B1AD0702B7BD8D7
:1026AC00602B50D0602B77D8502B3CD0502B73D84C
:1026BC00402B58D0402B6FD8302B64D0302B6BD89C
:1026CC00202B60D0202B67D8002B5CD0102B5AD03D
:1026DC0062E07B6818683B6899683B685A683B689D
:1026EC00DB6800F06AF97B681B689B68BB60BB68A1
:1026FC0043F07703BB607B681B68BA689A604FE055
:10270C007B6818683B6899683B685A683B68DB686B
:10271C0000F053F97B681B689A687B681B6842F46D
:10272C0080429A603CE07B6818683B6859683B685B
:10273C00DB681A4600F0CAF87B681B685021184603
:10274C0000F021F92CE07B6818683B6859683B68FD
:10275C00DB681A4600F0E8F87B681B6860211846B5
:10276C0000F011F91CE07B6818683B6859683B68FD
:10277C00DB681A4600F0AAF87B681B6840211846F3
:10278C0000F001F90CE07B681A683B681B6819467D
:10279C00104600F0F8F803E00123FB7300E000BFE3
:1027AC007B68012283F83D207B68002283F83C2063
:1027BC00FB7B18461037BD4680BD80B483B000AF9C
:1027CC00786000BF0C37BD4680BC704780B483B0C6
:1027DC0000AF786000BF0C37BD4680BC704780B43A
:1027EC0083B000AF786000BF0C37BD4680BC70472B
:1027FC0080B483B000AF786000BF0C37BD4680BC9E
:10280C007047000080B485B000AF786039607B6899
:10281C001B68FB607B682B4A934207D07B68B3F143
:10282C00804F03D07B68284A934208D1FB6823F081
:10283C007003FB603B685B68FA681343FB607B6862
:10284C00204A934207D07B68B3F1804F03D07B685A
:10285C001D4A934208D1FB6823F44073FB603B682C
:10286C00DB68FA681343FB60FB6823F080023B686B
:10287C005B691343FB607B68FA681A603B689A6873
:10288C007B68DA623B681A687B689A627B680D4ADF
:10289C00934203D13B681A697B681A637B680122F7
:1028AC005A617B681B6903F00103002B05D07B6820
:1028BC001B6923F001027B681A6100BF1437BD4607
:1028CC0080BC7047002C01400004004080B487B0ED
:1028DC0000AFF860B9607A60FB681B6A7B61FB68CB
:1028EC001B6A23F00102FB681A62FB689B693B615F
:1028FC003B6923F0F0033B617B681B013A6913438E
:10290C003B617B6923F00A037B617A69BB681343E3
:10291C007B61FB683A699A61FB687A691A6200BF4D
:10292C001C37BD4680BC704780B487B000AFF860E0
:10293C00B9607A60FB681B6A7B61FB681B6A23F0D9
:10294C001002FB681A62FB689B693B613B6923F4CC
:10295C0070433B617B681B033A6913433B617B69A2
:10296C0023F0A0037B61BB681B017A6913437B6175
:10297C00FB683A699A61FB687A691A6200BF1C3776
:10298C00BD4680BC704780B485B000AF78603960BC
:10299C007B689B68FB60FB6823F07003FB603A6804
:1029AC00FB68134343F00703FB607B68FA689A608B
:1029BC0000BF1437BD4680BC704780B487B000AFF1
:1029CC00F860B9607A603B60FB689B687B617B69EF
:1029DC0023F47F437B613B681A027B681A43BB6814
:1029EC0013437A6913437B61FB687A699A6000BF71
:1029FC001C37BD4680BC704780B485B000AF786092
:102A0C0039607B6893F83C30012B01D1022341E003
:102A1C007B68012283F83C207B68022283F83D20EE
:102A2C007B681B685B68FB607B681B689B68BB6092
:102A3C00FB6823F07003FB603B681B68FA68134368
:102A4C00FB607B681B68FA685A607B681B68144AD9
:102A5C00934209D07B681B68B3F1804F04D07B682C
:102A6C001B68104A93420CD1BB6823F08003BB60F7
:102A7C003B685B68BA681343BB607B681B68BA68C9
:102A8C009A607B68012283F83D207B68002283F8E2
:102A9C003C20002318461437BD4680BC704700BF4D
:102AAC00002C01400004004080B483B000AF78607B
:102ABC0000BF0C37BD4680BC704780B483B000AFFC
:102ACC00786000BF0C37BD4680BC704770B50026DF
:102ADC000C4D0D4C641BA410A64209D100F022F839
:102AEC0000260A4D0A4C641BA410A64205D170BDE9
:102AFC0055F8043B98470136EEE755F8043B9847E8
:102B0C000136F2E76C2B00086C2B00086C2B0008CC
:102B1C00702B000803460244934200D1704703F81F
:102B2C00011BF9E7F8B500BFF8BC08BC9E4670471E
:0C2B3C00F8B500BFF8BC08BC9E4670470E
:102B48000000000000000000010203040607080955
:102B580002030405060708090A0B0C0D0E0F1010D6
:042B68000102000066
:042B6C00310100082B
:042B70000D0100084B
:102B7400010000000100000001000000010000004D
:102B8400C800000001000000010000000100000076
:102B940001000000C8000000010000000100000066
:102BA4000100000001000000C80000000100000056
:102BB40005000000030000000200000000127A007B
:082BC4001000000001000000F8
:04000005080014E9F2
:00000001FF
